{
  "contractName": "PoolPartyNameService",
  "abi": [
    {
      "constant": true,
      "inputs": [
        {
          "name": "",
          "type": "bytes32"
        }
      ],
      "name": "hashedStringResolutions",
      "outputs": [
        {
          "name": "",
          "type": "address"
        }
      ],
      "payable": false,
      "stateMutability": "view",
      "type": "function"
    },
    {
      "constant": false,
      "inputs": [
        {
          "name": "myid",
          "type": "bytes32"
        },
        {
          "name": "result",
          "type": "string"
        }
      ],
      "name": "__callback",
      "outputs": [],
      "payable": false,
      "stateMutability": "nonpayable",
      "type": "function"
    },
    {
      "constant": false,
      "inputs": [
        {
          "name": "_qId",
          "type": "bytes32"
        },
        {
          "name": "_result",
          "type": "string"
        },
        {
          "name": "_proof",
          "type": "bytes"
        }
      ],
      "name": "__callback",
      "outputs": [],
      "payable": false,
      "stateMutability": "nonpayable",
      "type": "function"
    },
    {
      "constant": false,
      "inputs": [
        {
          "name": "_domainRoot",
          "type": "string"
        }
      ],
      "name": "mapDomainFromTxtRecord",
      "outputs": [],
      "payable": true,
      "stateMutability": "payable",
      "type": "function"
    },
    {
      "constant": true,
      "inputs": [
        {
          "name": "",
          "type": "bytes32"
        }
      ],
      "name": "proofHistoryCount",
      "outputs": [
        {
          "name": "",
          "type": "uint256"
        }
      ],
      "payable": false,
      "stateMutability": "view",
      "type": "function"
    },
    {
      "constant": true,
      "inputs": [
        {
          "name": "_domain",
          "type": "bytes32"
        },
        {
          "name": "_index",
          "type": "uint256"
        }
      ],
      "name": "getProofHistory",
      "outputs": [
        {
          "name": "",
          "type": "string"
        },
        {
          "name": "",
          "type": "address"
        },
        {
          "name": "",
          "type": "bytes"
        },
        {
          "name": "",
          "type": "uint256"
        },
        {
          "name": "",
          "type": "uint256"
        }
      ],
      "payable": false,
      "stateMutability": "view",
      "type": "function"
    },
    {
      "constant": true,
      "inputs": [],
      "name": "APP_IPFS_HASH",
      "outputs": [
        {
          "name": "",
          "type": "string"
        }
      ],
      "payable": false,
      "stateMutability": "view",
      "type": "function"
    },
    {
      "constant": true,
      "inputs": [
        {
          "name": "",
          "type": "address"
        }
      ],
      "name": "addressResolutions",
      "outputs": [
        {
          "name": "",
          "type": "string"
        }
      ],
      "payable": false,
      "stateMutability": "view",
      "type": "function"
    },
    {
      "constant": false,
      "inputs": [
        {
          "name": "_domainRoot",
          "type": "string"
        },
        {
          "name": "_useWww",
          "type": "bool"
        }
      ],
      "name": "mapDomainFromJson",
      "outputs": [],
      "payable": true,
      "stateMutability": "payable",
      "type": "function"
    },
    {
      "constant": true,
      "inputs": [
        {
          "name": "",
          "type": "bytes32"
        },
        {
          "name": "",
          "type": "uint256"
        }
      ],
      "name": "proofHistories",
      "outputs": [
        {
          "name": "domain",
          "type": "string"
        },
        {
          "name": "ethAddress",
          "type": "address"
        },
        {
          "name": "proof",
          "type": "bytes"
        },
        {
          "name": "proofType",
          "type": "uint256"
        },
        {
          "name": "time",
          "type": "uint256"
        }
      ],
      "payable": false,
      "stateMutability": "view",
      "type": "function"
    },
    {
      "constant": true,
      "inputs": [
        {
          "name": "",
          "type": "bytes32"
        }
      ],
      "name": "pendingMappings",
      "outputs": [
        {
          "name": "",
          "type": "string"
        }
      ],
      "payable": false,
      "stateMutability": "view",
      "type": "function"
    },
    {
      "constant": true,
      "inputs": [],
      "name": "VERSION",
      "outputs": [
        {
          "name": "",
          "type": "uint256"
        }
      ],
      "payable": false,
      "stateMutability": "view",
      "type": "function"
    },
    {
      "inputs": [],
      "payable": false,
      "stateMutability": "nonpayable",
      "type": "constructor"
    },
    {
      "anonymous": false,
      "inputs": [
        {
          "indexed": true,
          "name": "domain",
          "type": "string"
        },
        {
          "indexed": true,
          "name": "ethAddress",
          "type": "address"
        },
        {
          "indexed": false,
          "name": "date",
          "type": "uint256"
        }
      ],
      "name": "MappingCreated",
      "type": "event"
    }
  ],
  "bytecode": "0x6060604052341561000f57600080fd5b60008054600160a060020a031916736f485c8bf6fc43ea212e93bbf8ce046c7f1cb475179055612c67806100446000396000f3006060604052600436106100a05763ffffffff60e060020a6000350416632521e3ba81146100a557806327dc297e146100d757806338bbfa501461012f578063518ef512146101c7578063635b2e1a1461020d5780636de2fa9c146102355780637d98298d1461035657806396a32db0146103e0578063ba70fb8e146103ff578063bcb8e3e314610449578063ecd6c81314610585578063ffa1ad741461059b575b600080fd5b34156100b057600080fd5b6100bb6004356105ae565b604051600160a060020a03909116815260200160405180910390f35b34156100e257600080fd5b61012d600480359060446024803590810190830135806020601f820181900481020160405190810160405281815292919060208401838380828437509496506105c995505050505050565b005b341561013a57600080fd5b61012d600480359060446024803590810190830135806020601f8201819004810201604051908101604052818152929190602084018383808284378201915050505050509190803590602001908201803590602001908080601f0160208091040260200160405190810160405281815292919060208401838380828437509496506105fb95505050505050565b61012d60046024813581810190830135806020601f82018190048102016040519081016040528181529291906020840183838082843750949650610a3d95505050505050565b341561021857600080fd5b610223600435610b92565b60405190815260200160405180910390f35b341561024057600080fd5b61024e600435602435610ba4565b604051808060200186600160a060020a0316600160a060020a0316815260200180602001858152602001848152602001838103835288818151815260200191508051906020019080838360005b838110156102b357808201518382015260200161029b565b50505050905090810190601f1680156102e05780820380516001836020036101000a031916815260200191505b50838103825286818151815260200191508051906020019080838360005b838110156103165780820151838201526020016102fe565b50505050905090810190601f1680156103435780820380516001836020036101000a031916815260200191505b5097505050505050505060405180910390f35b341561036157600080fd5b610369610dfb565b60405160208082528190810183818151815260200191508051906020019080838360005b838110156103a557808201518382015260200161038d565b50505050905090810190601f1680156103d25780820380516001836020036101000a031916815260200191505b509250505060405180910390f35b34156103eb57600080fd5b610369600160a060020a0360043516610e5b565b61012d60046024813581810190830135806020601f82018190048102016040519081016040528181529291906020840183838082843750949650505050913515159150610f0b9050565b341561045457600080fd5b6104626004356024356110a2565b604051600160a060020a0385166020820152606081018390526080810182905260a08082528654600260001961010060018416150201909116049082018190528190604082019060c0830190899080156104fd5780601f106104d2576101008083540402835291602001916104fd565b820191906000526020600020905b8154815290600101906020018083116104e057829003601f168201915b50508381038252865460026000196101006001841615020190911604808252602090910190879080156105715780601f1061054657610100808354040283529160200191610571565b820191906000526020600020905b81548152906001019060200180831161055457829003601f168201915b505097505050505050505060405180910390f35b341561059057600080fd5b6103696004356110f4565b34156105a657600080fd5b610223611171565b600660205260009081526040902054600160a060020a031681565b6105f7828260006040518059106105dd5750595b818152601f19601f830116810160200160405290506105fb565b5050565b610603612ab9565b600061060d611176565b600160a060020a031633600160a060020a031614151561062c57600080fd5b6008600086600019166000191681526020019081526020016000208054600181600116156101000203166002900480601f0160208091040260200160405190810160405280929190818152602001828054600181600116156101000203166002900480156106db5780601f106106b0576101008083540402835291602001916106db565b820191906000526020600020905b8154815290600101906020018083116106be57829003601f168201915b5050505050915060206040519081016040908152600080835287815260086020522090805161070e929160200190612acb565b5061071884611317565b9050600082511161072857600080fd5b600160a060020a038116151561073d57600080fd5b60096000836040518082805190602001908083835b602083106107715780518252601f199092019160209182019101610752565b6001836020036101000a0380198251168184511617909252505050919091019250604091505051908190039020815260208101919091526040016000208054600181016107be8382612b49565b9160005260206000209060050201600060a06040519081016040908152868252600160a060020a0386166020830152810187905260006060820152426080820152919050815181908051610816929160200190612acb565b506020820151600182018054600160a060020a031916600160a060020a0392909216919091179055604082015181600201908051610858929160200190612acb565b5060608201518160030155608082015181600401555050506001600a6000846040518082805190602001908083835b602083106108a65780518252601f199092019160209182019101610887565b6001836020036101000a03801982511681845116179092525050509190910192506040915050519081900390208152602081019190915260409081016000908120805490930190925582916006918590518082805190602001908083835b602083106109235780518252601f199092019160209182019101610904565b6001836020036101000a03801982511681845116179092525050509190910192506040915050519081900390208152602080820192909252604090810160009081208054600160a060020a031916600160a060020a0395861617905592841683526007909152902082805161099c929160200190612acb565b5080600160a060020a0316826040518082805190602001908083835b602083106109d75780518252601f1990920191602091820191016109b8565b6001836020036101000a038019825116818451161790925250505091909101925060409150505180910390207ff2a1d7258f36e4168aee3bb83ed7585fc4f534074d8fa8dae069598dbadbc4314260405190815260200160405180910390a35050505050565b600030600160a060020a031631610a8660408051908101604052600b81527f636f6d7075746174696f6e00000000000000000000000000000000000000000060208201526114d9565b1115610a9157600080fd5b610aba7f11000000000000000000000000000000000000000000000000000000000000006116e7565b610b6b604080519081016040908152600b82527f636f6d7075746174696f6e0000000000000000000000000000000000000000006020830152805190810160405280606060405190810160405280602e81526020017f516d4e64374338427755716668667136787952524d7a786b31763364414c516a81526020017f44787742673479454a6b55323444000000000000000000000000000000000000815250815260200185815250620493e061189c565b6000818152600860205260409020909150828051610b8d929160200190612acb565b505050565b600a6020526000908152604090205481565b610bac612ab9565b6000610bb6612ab9565b6000858152600960205260408120805482919087908110610bd357fe5b600091825260208083208a84526009909152604090922080546005909202909201919088908110610c0057fe5b60009182526020808320600160059093020191909101548a8352600990915260409091208054600160a060020a039092169189908110610c3c57fe5b600091825260208083208c845260099091526040909220805460059290920290920160020191908a908110610c6d57fe5b60009182526020808320600360059093020191909101548c83526009909152604090912080548b908110610c9d57fe5b906000526020600020906005020160040154848054600181600116156101000203166002900480601f016020809104026020016040519081016040528092919081815260200182805460018160011615610100020316600290048015610d445780601f10610d1957610100808354040283529160200191610d44565b820191906000526020600020905b815481529060010190602001808311610d2757829003601f168201915b50505050509450828054600181600116156101000203166002900480601f016020809104026020016040519081016040528092919081815260200182805460018160011615610100020316600290048015610de05780601f10610db557610100808354040283529160200191610de0565b820191906000526020600020905b815481529060010190602001808311610dc357829003601f168201915b50505050509250945094509450945094509295509295909350565b606060405190810160405280602e81526020017f516d4e64374338427755716668667136787952524d7a786b31763364414c516a81526020017f44787742673479454a6b5532344400000000000000000000000000000000000081525081565b60076020528060005260406000206000915090508054600181600116156101000203166002900480601f016020809104026020016040519081016040528092919081815260200182805460018160011615610100020316600290048015610f035780601f10610ed857610100808354040283529160200191610f03565b820191906000526020600020905b815481529060010190602001808311610ee657829003601f168201915b505050505081565b600030600160a060020a031631610f5460408051908101604052600381527f55524c000000000000000000000000000000000000000000000000000000000060208201526114d9565b1115610f5f57600080fd5b610f887f11000000000000000000000000000000000000000000000000000000000000006116e7565b610f9a6005848463ffffffff611a7416565b61107a6040805190810160405280600381526020017f55524c000000000000000000000000000000000000000000000000000000000081525060056000018054600181600116156101000203166002900480601f01602080910402602001604051908101604052809291908181526020018280546001816001161561010002031660029004801561106c5780601f106110415761010080835404028352916020019161106c565b820191906000526020600020905b81548152906001019060200180831161104f57829003601f168201915b5050505050620493e0611c07565b600081815260086020526040902090915083805161109c929160200190612acb565b50505050565b6009602052816000526040600020818154811015156110bd57fe5b60009182526020909120600590910201600181015460038201546004830154929450600160a060020a039091169250600284019185565b60086020528060005260406000206000915090508054600181600116156101000203166002900480601f016020809104026020016040519081016040528092919081815260200182805460018160011615610100020316600290048015610f035780601f10610ed857610100808354040283529160200191610f03565b600181565b60008054600160a060020a031615806111a1575060005461119f90600160a060020a0316611f8b565b155b156111b2576111b06000611f8f565b505b60008054600160a060020a0316906338cc483190604051602001526040518163ffffffff1660e060020a028152600401602060405180830381600087803b15156111fb57600080fd5b6102c65a03f1151561120c57600080fd5b5050506040518051600154600160a060020a0390811691161490506112af5760008054600160a060020a0316906338cc483190604051602001526040518163ffffffff1660e060020a028152600401602060405180830381600087803b151561127457600080fd5b6102c65a03f1151561128557600080fd5b505050604051805160018054600160a060020a031916600160a060020a0392909216919091179055505b600154600160a060020a031663c281d19e6000604051602001526040518163ffffffff1660e060020a028152600401602060405180830381600087803b15156112f757600080fd5b6102c65a03f1151561130857600080fd5b50505060405180519150505b90565b6000611321612ab9565b50816000808060025b602a8110156114ce576101008402935084818151811061134657fe5b016020015160f860020a900460f860020a0260f860020a9004925084816001018151811061137057fe5b016020015160f860020a900460f860020a0260f860020a90049150606183600160a060020a0316101580156113af5750606683600160a060020a031611155b156113bf57605783039250611423565b604183600160a060020a0316101580156113e35750604683600160a060020a031611155b156113f357603783039250611423565b603083600160a060020a0316101580156114175750603983600160a060020a031611155b15611423576030830392505b606182600160a060020a0316101580156114475750606682600160a060020a031611155b15611457576057820391506114bb565b604182600160a060020a03161015801561147b5750604682600160a060020a031611155b1561148b576037820391506114bb565b603082600160a060020a0316101580156114af5750603982600160a060020a031611155b156114bb576030820391505b601083028201939093019260020161132a565b509195945050505050565b60008054600160a060020a03161580611504575060005461150290600160a060020a0316611f8b565b155b15611515576115136000611f8f565b505b60008054600160a060020a0316906338cc483190604051602001526040518163ffffffff1660e060020a028152600401602060405180830381600087803b151561155e57600080fd5b6102c65a03f1151561156f57600080fd5b5050506040518051600154600160a060020a0390811691161490506116125760008054600160a060020a0316906338cc483190604051602001526040518163ffffffff1660e060020a028152600401602060405180830381600087803b15156115d757600080fd5b6102c65a03f115156115e857600080fd5b505050604051805160018054600160a060020a031916600160a060020a0392909216919091179055505b600154600160a060020a031663524f3889836000604051602001526040518263ffffffff1660e060020a0281526004018080602001828103825283818151815260200191508051906020019080838360005b8381101561167c578082015183820152602001611664565b50505050905090810190601f1680156116a95780820380516001836020036101000a031916815260200191505b5092505050602060405180830381600087803b15156116c757600080fd5b6102c65a03f115156116d857600080fd5b50505060405180519392505050565b600054600160a060020a03161580611711575060005461170f90600160a060020a0316611f8b565b155b15611722576117206000611f8f565b505b60008054600160a060020a0316906338cc483190604051602001526040518163ffffffff1660e060020a028152600401602060405180830381600087803b151561176b57600080fd5b6102c65a03f1151561177c57600080fd5b5050506040518051600154600160a060020a03908116911614905061181f5760008054600160a060020a0316906338cc483190604051602001526040518163ffffffff1660e060020a028152600401602060405180830381600087803b15156117e457600080fd5b6102c65a03f115156117f557600080fd5b505050604051805160018054600160a060020a031916600160a060020a0392909216919091179055505b600154600160a060020a031663688dcfd78260405160e060020a63ffffffff84160281527fff000000000000000000000000000000000000000000000000000000000000009091166004820152602401600060405180830381600087803b151561188857600080fd5b6102c65a03f1151561109c57600080fd5b50565b60006118a6612ab9565b600054600160a060020a031615806118d057506000546118ce90600160a060020a0316611f8b565b155b156118e1576118df6000611f8f565b505b60008054600160a060020a0316906338cc483190604051602001526040518163ffffffff1660e060020a028152600401602060405180830381600087803b151561192a57600080fd5b6102c65a03f1151561193b57600080fd5b5050506040518051600154600160a060020a0390811691161490506119de5760008054600160a060020a0316906338cc483190604051602001526040518163ffffffff1660e060020a028152600401602060405180830381600087803b15156119a357600080fd5b6102c65a03f115156119b457600080fd5b505050604051805160018054600160a060020a031916600160a060020a0392909216919091179055505b60026040518059106119ed5750595b908082528060200260200182016040528015611a2357816020015b611a10612ab9565b815260200190600190039081611a085790505b509050835181600081518110611a3557fe5b60209081029091010152836001602002015181600181518110611a5457fe5b60209081029091010152611a69858285611f9f565b91505b509392505050565b80611b4257611b3d611ae1606060405190810160405280602981526020017f2f7070636f6e666967292e617574686f72697a6564436f6e666967757261746981526020017f6f6e41646472657373000000000000000000000000000000000000000000000081525061233a565b611b2c611b38611af08661233a565b611b2c60408051908101604052600d81527f6a736f6e2868747470733a2f2f00000000000000000000000000000000000000602082015261233a565b9063ffffffff61236216565b61233a565b611bf5565b611bf5611baa606060405190810160405280602981526020017f2f7070636f6e666967292e617574686f72697a6564436f6e666967757261746981526020017f6f6e41646472657373000000000000000000000000000000000000000000000081525061233a565b611b2c611b38611bb98661233a565b611b2c60408051908101604052601181527f6a736f6e2868747470733a2f2f7777772e000000000000000000000000000000602082015261233a565b8390805161109c929160200190612acb565b600080548190600160a060020a03161580611c345750600054611c3290600160a060020a0316611f8b565b155b15611c4557611c436000611f8f565b505b60008054600160a060020a0316906338cc483190604051602001526040518163ffffffff1660e060020a028152600401602060405180830381600087803b1515611c8e57600080fd5b6102c65a03f11515611c9f57600080fd5b5050506040518051600154600160a060020a039081169116149050611d425760008054600160a060020a0316906338cc483190604051602001526040518163ffffffff1660e060020a028152600401602060405180830381600087803b1515611d0757600080fd5b6102c65a03f11515611d1857600080fd5b505050604051805160018054600160a060020a031916600160a060020a0392909216919091179055505b600154600160a060020a0316632ef3accc86856000604051602001526040518363ffffffff1660e060020a0281526004018080602001838152602001828103825284818151815260200191508051906020019080838360005b83811015611db3578082015183820152602001611d9b565b50505050905090810190601f168015611de05780820380516001836020036101000a031916815260200191505b509350505050602060405180830381600087803b1515611dff57600080fd5b6102c65a03f11515611e1057600080fd5b5050506040518051915050670de0b6b3a76400003a840201811115611e385760009150611a6c565b600154600160a060020a031663c51be90f82600088888883604051602001526040518663ffffffff1660e060020a028152600401808581526020018060200180602001848152602001838103835286818151815260200191508051906020019080838360005b83811015611eb6578082015183820152602001611e9e565b50505050905090810190601f168015611ee35780820380516001836020036101000a031916815260200191505b50838103825285818151815260200191508051906020019080838360005b83811015611f19578082015183820152602001611f01565b50505050905090810190601f168015611f465780820380516001836020036101000a031916815260200191505b5096505050505050506020604051808303818588803b1515611f6757600080fd5b6125ee5a03f11515611f7857600080fd5b5050505060405180519695505050505050565b3b90565b6000611f996123c6565b92915050565b600080611faa612ab9565b600054600160a060020a03161580611fd45750600054611fd290600160a060020a0316611f8b565b155b15611fe557611fe36000611f8f565b505b60008054600160a060020a0316906338cc483190604051602001526040518163ffffffff1660e060020a028152600401602060405180830381600087803b151561202e57600080fd5b6102c65a03f1151561203f57600080fd5b5050506040518051600154600160a060020a0390811691161490506120e25760008054600160a060020a0316906338cc483190604051602001526040518163ffffffff1660e060020a028152600401602060405180830381600087803b15156120a757600080fd5b6102c65a03f115156120b857600080fd5b505050604051805160018054600160a060020a031916600160a060020a0392909216919091179055505b600154600160a060020a0316632ef3accc87866000604051602001526040518363ffffffff1660e060020a0281526004018080602001838152602001828103825284818151815260200191508051906020019080838360005b8381101561215357808201518382015260200161213b565b50505050905090810190601f1680156121805780820380516001836020036101000a031916815260200191505b509350505050602060405180830381600087803b151561219f57600080fd5b6102c65a03f115156121b057600080fd5b5050506040518051925050670de0b6b3a76400003a8502018211156121d85760009250612331565b6121e1856126ea565b600154909150600160a060020a031663c55c1cb683600089858983604051602001526040518663ffffffff1660e060020a028152600401808581526020018060200180602001848152602001838103835286818151815260200191508051906020019080838360005b8381101561226257808201518382015260200161224a565b50505050905090810190601f16801561228f5780820380516001836020036101000a031916815260200191505b50838103825285818151815260200191508051906020019080838360005b838110156122c55780820151838201526020016122ad565b50505050905090810190601f1680156122f25780820380516001836020036101000a031916815260200191505b5096505050505050506020604051808303818588803b151561231357600080fd5b6125ee5a03f1151561232457600080fd5b5050505060405180519350505b50509392505050565b612342612b75565b602082016040805190810160405280845181526020019190915292915050565b61236a612ab9565b612372612ab9565b600083518551016040518059106123865750595b818152601f19601f8301168101602001604052905091506020820190506123b38186602001518751612a61565b611a6c8551820185602001518651612a61565b6000806123e6731d3b2638a7cc9f2cb3d298a3da7a90b67e5506ed611f8b565b11156124565760008054600160a060020a031916731d3b2638a7cc9f2cb3d298a3da7a90b67e5506ed17905561244e60408051908101604052600b81527f6574685f6d61696e6e65740000000000000000000000000000000000000000006020820152612aa6565b506001611314565b600061247573c03a2615d5efaf5f49f60b7bb6583eaec212fdf1611f8b565b11156124dd5760008054600160a060020a03191673c03a2615d5efaf5f49f60b7bb6583eaec212fdf117905561244e60408051908101604052600c81527f6574685f726f707374656e3300000000000000000000000000000000000000006020820152612aa6565b60006124fc73b7a07bcf2ba2f2703b24c0691b5278999c59ac7e611f8b565b11156125645760008054600160a060020a03191673b7a07bcf2ba2f2703b24c0691b5278999c59ac7e17905561244e60408051908101604052600981527f6574685f6b6f76616e00000000000000000000000000000000000000000000006020820152612aa6565b600061258373146500cfd35b22e4a392fe0adc06de1a1368ed48611f8b565b11156125eb5760008054600160a060020a03191673146500cfd35b22e4a392fe0adc06de1a1368ed4817905561244e60408051908101604052600b81527f6574685f72696e6b6562790000000000000000000000000000000000000000006020820152612aa6565b600061260a736f485c8bf6fc43ea212e93bbf8ce046c7f1cb475611f8b565b111561263e575060008054600160a060020a031916736f485c8bf6fc43ea212e93bbf8ce046c7f1cb4751790556001611314565b600061265d7320e12a1f859b3feae5fb2a0a32c18f5a65555bbf611f8b565b1115612691575060008054600160a060020a0319167320e12a1f859b3feae5fb2a0a32c18f5a65555bbf1790556001611314565b60006126b07351efaf4c8b3c9afbd5ab9f4bbc82784ab6ef8faa611f8b565b11156126e4575060008054600160a060020a0319167351efaf4c8b3c9afbd5ab9f4bbc82784ab6ef8faa1790556001611314565b50600090565b6126f2612ab9565b6000806126fd612ab9565b600080600061270a612ab9565b60008060008b51995060009850896040518059106127255750595b90808252806020026020018201604052801561275b57816020015b612748612ab9565b8152602001906001900390816127405790505b509750600096505b898710156127e8578b878151811061277757fe5b9060200190602002015188888151811061278d57fe5b60209081029091010152601760018989815181106127a757fe5b9060200190602002015151038115156127bc57fe5b048888815181106127c957fe5b9060200190602002015151019890980160030197600190960195612763565b600198909801976000955060808a019450886040518059106128075750595b818152601f19601f8301168101602001604052905093505b6001869011156128715760f860020a8502866001811061283b57fe5b1a60f860020a0284878151811061284e57fe5b906020010190600160f860020a031916908160001a90535060019095019461281f565b600096505b89871015612a51577f5f000000000000000000000000000000000000000000000000000000000000008487815181106128ab57fe5b906020010190600160f860020a031916908160001a905350600190950194600092505b8787815181106128da57fe5b90602001906020020151518310156129fd576017830615156129965760188389898151811061290557fe5b9060200190602002015151031015612935578288888151811061292457fe5b906020019060200201515103612938565b60175b60400191508590505b808603600111156129965760f860020a82028187036001811061296057fe5b1a60f860020a0284878151811061297357fe5b906020010190600160f860020a031916908160001a905350600190950194612941565b8787815181106129a257fe5b9060200190602002015183815181106129b757fe5b016020015160f860020a900460f860020a028487815181106129d557fe5b906020010190600160f860020a031916908160001a90535060019586019592909201916128ce565b7fff00000000000000000000000000000000000000000000000000000000000000848781518110612a2a57fe5b906020010190600160f860020a031916908160001a90535060019687019690950194612876565b50919a9950505050505050505050565b60005b60208210612a875782518452602084019350602083019250602082039150612a64565b6001826020036101000a03905080198351168185511617909352505050565b60028180516105f7929160200190612acb565b60206040519081016040526000815290565b828054600181600116156101000203166002900490600052602060002090601f016020900481019282601f10612b0c57805160ff1916838001178555612b39565b82800160010185558215612b39579182015b82811115612b39578251825591602001919060010190612b1e565b50612b45929150612b8c565b5090565b815481835581811511610b8d57600502816005028360005260206000209182019101610b8d9190612ba6565b604080519081016040526000808252602082015290565b61131491905b80821115612b455760008155600101612b92565b61131491905b80821115612b45576000612bc08282612bf7565b600182018054600160a060020a0319169055612be0600283016000612bf7565b506000600382018190556004820155600501612bac565b50805460018160011615610100020316600290046000825580601f10612c1d5750611899565b601f0160209004906000526020600020908101906118999190612b8c5600a165627a7a723058200a2d25c42a85a8a3ed81b89f7874ea660891f18c8c30672c624d2308f4dacf460029",
  "source": "pragma solidity ^0.4.18;\n\nimport \"./usingOraclize.sol\";\nimport \"./libraries/OraclizeQueryBuilder.sol\";\n\n/**\n * @title Pool Party Name Service\n * @dev A contract that maps Ethereum addresses to human readable internet domain names\n * @author - Rick Feiner and Shane van Coller\n */\ncontract PoolPartyNameService is usingOraclize {\n    using OraclizeQueryBuilder for OraclizeQueryBuilder.OraclizeQueries;\n\n    /* Constants */\n    uint256 public constant VERSION = 1;\n    //string public constant APP_IPFS_HASH = \"QmWi9MdaiCCVS1g8cECSdjmZ4b2WEMSq29BdHrwymhfwkU\"; //Java app\n    string public constant APP_IPFS_HASH = \"QmNd7C8BwUqfhfq6xyRRMzxk1v3dALQjDxwBg4yEJkU24D\"; //Java app\n\n    OraclizeQueryBuilder.OraclizeQueries oQueries;\n\n    mapping(bytes32 => address) public hashedStringResolutions;\n    mapping(address => string) public addressResolutions;\n    mapping(bytes32 => string) public pendingMappings;\n    mapping(bytes32 => ProofHistory[]) public proofHistories;\n    mapping(bytes32=> uint256) public proofHistoryCount;\n\n    struct ProofHistory {\n        string domain;\n        address ethAddress;\n        bytes proof;\n        uint256 proofType;\n        uint256 time;\n    }\n\n    event MappingCreated(string indexed domain, address indexed ethAddress, uint256 date);\n\n    /**\n     * @dev Constructor initializing parameters\n     */\n    function PoolPartyNameService() public {\n        OAR = OraclizeAddrResolverI(0x6f485C8BF6fc43eA212E93BBF8ce046C7f1cb475); //TODO: ONLY USED FOR LOCAL TESTING\n    }\n\n    /**\n     * @dev Oraclize call to verify a domain using hosted JSON file\n     * @param _domainRoot Root domain\n     * @param _useWww Whether or not to use www subdomain for the call to Oraclize\n     */\n    function mapDomainFromJson(string _domainRoot, bool _useWww)\n        public\n        payable\n    {\n        require(oraclize_getPrice(\"URL\") <= this.balance);\n\n        oraclize_setProof(proofType_TLSNotary | proofStorage_IPFS);\n        oQueries.buildQueries(_domainRoot, _useWww);\n        bytes32 _oraclizeQueryId = oraclize_query(\"URL\", oQueries.oraclizeQueryETHAddress, 300000);\n\n        pendingMappings[_oraclizeQueryId] = _domainRoot;\n    }\n\n    /**\n     * @dev Oraclize call to verify a domain using TXT records\n     * @param _domainRoot Root domain\n     */\n    function mapDomainFromTxtRecord(string _domainRoot)\n        public\n        payable\n    {\n        require(oraclize_getPrice(\"computation\") <= this.balance);\n\n        oraclize_setProof(proofType_TLSNotary | proofStorage_IPFS);\n        bytes32 _oraclizeQueryId = oraclize_query(\"computation\", [APP_IPFS_HASH, _domainRoot], 300000);\n\n        pendingMappings[_oraclizeQueryId] = _domainRoot;\n    }\n\n    /**\n     * @dev Oraclize callback - assume the result is always an address no matter which method (URL or Computation) was used to get it. Tx will fail if returned value is not an address\n     * @param _qId ID used to tie result back to the original query\n     * @param _result Result of the oracle query\n     */\n    function __callback(bytes32 _qId, string _result, bytes _proof) public {\n        require(msg.sender == oraclize_cbAddress());\n\n        string memory _domain = pendingMappings[_qId];\n\n        //This oraclize call is no longer pending\n        pendingMappings[_qId] = \"\";\n        address _ethAddress = parseAddr(_result);\n\n        require (bytes(_domain).length > 0);\n        require (_ethAddress != address(0x0));\n\n        //Add a historical record of the change\n        proofHistories[keccak256(_domain)].push(ProofHistory({domain:_domain, ethAddress: _ethAddress, proof:_proof, proofType:0, time:now}));\n        proofHistoryCount[keccak256(_domain)] += 1;\n\n        //Create the mapping\n        hashedStringResolutions[keccak256(_domain)] = _ethAddress;\n        //TODO: We can map one address to multiple domains -- is this reverse lookup even meaningful?\n        addressResolutions[_ethAddress] = _domain;\n\n        MappingCreated(_domain, _ethAddress, now);\n    }\n\n    /**\n     * @dev Solidity cannot return complex types, so this is a custom getter for proofHistories for a specific domain at a specific index.\n     * @param _domain The domain to lookup\n     * @param _index The index in the array to retrieve\n     */\n    function getProofHistory(bytes32 _domain, uint256 _index)\n        public\n        view\n        returns (string, address, bytes, uint256, uint256)\n    {\n        return (\n            proofHistories[_domain][_index].domain,\n            proofHistories[_domain][_index].ethAddress,\n            proofHistories[_domain][_index].proof,\n            proofHistories[_domain][_index].proofType,\n            proofHistories[_domain][_index].time\n        );\n    }\n}",
  "compiler": {
    "name": "solc",
    "version": "0.4.18+commit.9cf6e910.Emscripten.clang"
  },
  "schemaVersion": "1.0.1",
  "updatedAt": "2018-04-16T19:11:09.133Z"
}