{
  "contractName": "CustomSale",
  "abi": [
    {
      "constant": true,
      "inputs": [],
      "name": "owner",
      "outputs": [
        {
          "name": "",
          "type": "address"
        }
      ],
      "payable": false,
      "stateMutability": "view",
      "type": "function"
    },
    {
      "constant": false,
      "inputs": [
        {
          "name": "newOwner",
          "type": "address"
        }
      ],
      "name": "transferOwnership",
      "outputs": [],
      "payable": false,
      "stateMutability": "nonpayable",
      "type": "function"
    },
    {
      "constant": true,
      "inputs": [],
      "name": "token",
      "outputs": [
        {
          "name": "",
          "type": "address"
        }
      ],
      "payable": false,
      "stateMutability": "view",
      "type": "function"
    },
    {
      "inputs": [
        {
          "name": "_tokenPrice",
          "type": "uint256"
        },
        {
          "name": "_token",
          "type": "address"
        }
      ],
      "payable": false,
      "stateMutability": "nonpayable",
      "type": "constructor"
    },
    {
      "payable": true,
      "stateMutability": "payable",
      "type": "fallback"
    },
    {
      "anonymous": false,
      "inputs": [
        {
          "indexed": true,
          "name": "previousOwner",
          "type": "address"
        },
        {
          "indexed": true,
          "name": "newOwner",
          "type": "address"
        }
      ],
      "name": "OwnershipTransferred",
      "type": "event"
    },
    {
      "constant": false,
      "inputs": [],
      "name": "buy",
      "outputs": [],
      "payable": true,
      "stateMutability": "payable",
      "type": "function"
    },
    {
      "constant": false,
      "inputs": [],
      "name": "buyWithIntentToRefund",
      "outputs": [],
      "payable": true,
      "stateMutability": "payable",
      "type": "function"
    },
    {
      "constant": false,
      "inputs": [],
      "name": "refund",
      "outputs": [],
      "payable": false,
      "stateMutability": "nonpayable",
      "type": "function"
    },
    {
      "constant": false,
      "inputs": [
        {
          "name": "_recipient",
          "type": "address"
        },
        {
          "name": "_amount",
          "type": "uint256"
        }
      ],
      "name": "mintTokens",
      "outputs": [],
      "payable": false,
      "stateMutability": "nonpayable",
      "type": "function"
    },
    {
      "constant": false,
      "inputs": [],
      "name": "withdrawFunds",
      "outputs": [],
      "payable": false,
      "stateMutability": "nonpayable",
      "type": "function"
    }
  ],
  "bytecode": "0x608060405234801561001057600080fd5b5060405160408061045783398101604052805160209091015160008054600160a060020a03338116600160a060020a031992831617909255600293909355600180549190921692169190911790556103ea8061006d6000396000f3006080604052600436106100745763ffffffff60e060020a60003504166303698f1d81146100ed57806324600fc3146100f5578063590e1ae31461010a5780638da5cb5b1461011f578063a6f2ae3a14610150578063f0dda65c14610158578063f2fde38b1461017c578063fc0c546a1461019d575b30600160a060020a031660405180807f62757928290000000000000000000000000000000000000000000000000000008152506005019050604051809103902060e060020a90046040518163ffffffff1660e060020a028152600401600060405180830381865af49250505015156100eb57600080fd5b005b6100eb6101b2565b34801561010157600080fd5b506100eb6101b8565b34801561011657600080fd5b506100eb610210565b34801561012b57600080fd5b50610134610247565b60408051600160a060020a039092168252519081900360200190f35b6100eb610256565b34801561016457600080fd5b506100eb600160a060020a0360043516602435610278565b34801561018857600080fd5b506100eb600160a060020a0360043516610317565b3480156101a957600080fd5b506101346103af565b34600355565b60005433600160a060020a039081169116146101d357600080fd5b604051600160a060020a0333811691309091163180156108fc02916000818181858888f1935050505015801561020d573d6000803e3d6000fd5b50565b600354604051600160a060020a0333169180156108fc02916000818181858888f1935050505015801561020d573d6000803e3d6000fd5b600054600160a060020a031681565b600060025434670de0b6b3a76400000281151561026f57fe5b04905061020d33825b600154604080517f40c10f19000000000000000000000000000000000000000000000000000000008152600160a060020a03858116600483015260248201859052915191909216916340c10f199160448083019260209291908290030181600087803b1580156102e757600080fd5b505af11580156102fb573d6000803e3d6000fd5b505050506040513d602081101561031157600080fd5b50505050565b60005433600160a060020a0390811691161461033257600080fd5b600160a060020a038116151561034757600080fd5b60008054604051600160a060020a03808516939216917f8be0079c531659141344cd1fd0a4f28419497f9722a3daafe3b4186f6b6457e091a36000805473ffffffffffffffffffffffffffffffffffffffff1916600160a060020a0392909216919091179055565b600154600160a060020a0316815600a165627a7a72305820b357a8dd7abb7bfec15529b51ec01e1dc0d3a1e70c806ac4e66cd882174c0de90029",
  "source": "pragma solidity ^0.4.23;\n\nimport \"zeppelin-solidity/contracts/ownership/Ownable.sol\";\nimport \"./GenericToken.sol\";\n\n/**\n * IMPORTANT: This is an overly simplified version of a token sale contract used only by ICO Pool Party as a proof of concept\n * This code SHOULD NOT be used in any production application.\n */\ncontract CustomSale is Ownable {\n    GenericToken public token;\n    uint256 tokenPrice;\n    uint256 amountSentToSale;\n\n    function () public payable {\n        require(address(this).delegatecall(bytes4(keccak256(\"buy()\"))));\n    }\n\n    constructor(uint256 _tokenPrice, address _token) public {\n        tokenPrice = _tokenPrice;\n        token = GenericToken(_token);\n    }\n\n    function buy() public payable {\n        uint256 tokensToSend = msg.value*10**18/tokenPrice; //Precision is important here\n        mintTokens(msg.sender, tokensToSend);\n    }\n\n    function buyWithIntentToRefund() public payable {\n        //Does not mint tokens -- mimics a sale that eventually doesn't reach its goal\n        amountSentToSale = msg.value;\n    }\n\n    function refund() public {\n        msg.sender.transfer(amountSentToSale);\n    }\n\n    function mintTokens(address _recipient, uint256 _amount) public {\n        token.mint(_recipient, _amount);\n    }\n\n    function withdrawFunds() public onlyOwner {\n        msg.sender.transfer(address(this).balance);\n    }\n}\n",
  "sourcePath": "/Users/shanevancoller/Development/blockchain/PoolParty/PoolPartyContracts/contracts/test-contracts/CustomSale.sol",
  "compiler": {
    "name": "solc",
    "version": "0.4.23+commit.124ca40d.Emscripten.clang"
  },
  "schemaVersion": "2.0.0",
  "updatedAt": "2018-06-08T03:59:54.927Z"
}