{
  "contractName": "INameService",
  "abi": [
    {
      "constant": true,
      "inputs": [
        {
          "name": "",
          "type": "bytes32"
        }
      ],
      "name": "hashedStringResolutions",
      "outputs": [
        {
          "name": "",
          "type": "address"
        }
      ],
      "payable": false,
      "stateMutability": "view",
      "type": "function"
    }
  ],
  "bytecode": "0x608060405234801561001057600080fd5b5060d58061001f6000396000f300608060405260043610603e5763ffffffff7c01000000000000000000000000000000000000000000000000000000006000350416632521e3ba81146043575b600080fd5b348015604e57600080fd5b5060586004356081565b6040805173ffffffffffffffffffffffffffffffffffffffff9092168252519081900360200190f35b60006020819052908152604090205473ffffffffffffffffffffffffffffffffffffffff16815600a165627a7a7230582014871221cb727e235ec959814b29c685b23c560a78318886d4726ec38e823dc40029",
  "source": "pragma solidity ^0.4.18;\n\ncontract INameService {\n    mapping(bytes32 => address) public hashedStringResolutions;\n}\n",
  "sourcePath": "/Users/shanevancoller/Development/blockchain/PoolParty/PoolPartyContracts/contracts/interfaces/INameService.sol",
  "compiler": {
    "name": "solc",
    "version": "0.4.23+commit.124ca40d.Emscripten.clang"
  },
  "schemaVersion": "2.0.0",
  "updatedAt": "2018-06-08T03:56:12.640Z"
}