{
  "contractName": "MockNameService",
  "abi": [
    {
      "constant": true,
      "inputs": [
        {
          "name": "",
          "type": "bytes32"
        }
      ],
      "name": "hashedStringResolutions",
      "outputs": [
        {
          "name": "",
          "type": "address"
        }
      ],
      "payable": false,
      "stateMutability": "view",
      "type": "function"
    },
    {
      "inputs": [],
      "payable": false,
      "stateMutability": "nonpayable",
      "type": "constructor"
    },
    {
      "constant": false,
      "inputs": [
        {
          "name": "_nameHash",
          "type": "bytes32"
        },
        {
          "name": "_mappedAddress",
          "type": "string"
        },
        {
          "name": "_proof",
          "type": "bytes"
        }
      ],
      "name": "__callback",
      "outputs": [],
      "payable": false,
      "stateMutability": "nonpayable",
      "type": "function"
    }
  ],
  "bytecode": "0x608060405234801561001057600080fd5b50610415806100206000396000f30060806040526004361061004b5763ffffffff7c01000000000000000000000000000000000000000000000000000000006000350416632521e3ba811461005057806338bbfa5014610084575b600080fd5b34801561005c57600080fd5b50610068600435610122565b60408051600160a060020a039092168252519081900360200190f35b34801561009057600080fd5b5060408051602060046024803582810135601f810185900485028601850190965285855261012095833595369560449491939091019190819084018382808284375050604080516020601f89358b018035918201839004830284018301909452808352979a99988101979196509182019450925082915084018382808284375094975061013d9650505050505050565b005b600060208190529081526040902054600160a060020a031681565b61014682610199565b600084815260208181526040909120805473ffffffffffffffffffffffffffffffffffffffff1916600160a060020a0393909316929092179091558151610193916001919084019061034e565b50505050565b60008181808060025b602a811015610343576101008402935084818151811015156101c057fe5b90602001015160f860020a900460f860020a0260f860020a9004925084816001018151811015156101ed57fe5b016020015160f860020a9081900481020491506061600160a060020a038416108015906102245750606683600160a060020a031611155b1561023457605783039250610298565b604183600160a060020a0316101580156102585750604683600160a060020a031611155b1561026857603783039250610298565b603083600160a060020a03161015801561028c5750603983600160a060020a031611155b15610298576030830392505b606182600160a060020a0316101580156102bc5750606682600160a060020a031611155b156102cc57605782039150610330565b604182600160a060020a0316101580156102f05750604682600160a060020a031611155b1561030057603782039150610330565b603082600160a060020a0316101580156103245750603982600160a060020a031611155b15610330576030820391505b60108302820193909301926002016101a2565b509195945050505050565b828054600181600116156101000203166002900490600052602060002090601f016020900481019282601f1061038f57805160ff19168380011785556103bc565b828001600101855582156103bc579182015b828111156103bc5782518255916020019190600101906103a1565b506103c89291506103cc565b5090565b6103e691905b808211156103c857600081556001016103d2565b905600a165627a7a7230582088beaa41e82fede3feb8232e03ca93691ca4f892a9a293dd99ce41691bedce3c0029",
  "source": "pragma solidity ^0.4.23;\n\ncontract MockNameService {\n    mapping(bytes32 => address) public hashedStringResolutions;\n    bytes proof;\n\n    constructor() public {}\n\n    function __callback(bytes32 _nameHash, string _mappedAddress, bytes _proof) public {\n        hashedStringResolutions[_nameHash] = parseAddr(_mappedAddress);\n        proof = _proof;\n    }\n\n    function parseAddr(string _a) internal pure returns (address){\n        bytes memory tmp = bytes(_a);\n        uint160 iaddr = 0;\n        uint160 b1;\n        uint160 b2;\n        for (uint i=2; i<2+2*20; i+=2){\n            iaddr *= 256;\n            b1 = uint160(tmp[i]);\n            b2 = uint160(tmp[i+1]);\n            if ((b1 >= 97)&&(b1 <= 102)) b1 -= 87;\n            else if ((b1 >= 65)&&(b1 <= 70)) b1 -= 55;\n            else if ((b1 >= 48)&&(b1 <= 57)) b1 -= 48;\n            if ((b2 >= 97)&&(b2 <= 102)) b2 -= 87;\n            else if ((b2 >= 65)&&(b2 <= 70)) b2 -= 55;\n            else if ((b2 >= 48)&&(b2 <= 57)) b2 -= 48;\n            iaddr += (b1*16+b2);\n        }\n        return address(iaddr);\n    }\n\n}\n",
  "sourcePath": "/Users/shanevancoller/Development/blockchain/PoolParty/PoolPartyContracts/contracts/test-contracts/MockNameService.sol",
  "compiler": {
    "name": "solc",
    "version": "0.4.23+commit.124ca40d.Emscripten.clang"
  },
  "schemaVersion": "2.0.0",
  "updatedAt": "2018-06-08T03:59:54.935Z"
}