{
  "contractName": "PoolPartyNameService",
  "abi": [
    {
      "constant": true,
      "inputs": [
        {
          "name": "",
          "type": "bytes32"
        }
      ],
      "name": "hashedStringResolutions",
      "outputs": [
        {
          "name": "",
          "type": "address"
        }
      ],
      "payable": false,
      "stateMutability": "view",
      "type": "function"
    },
    {
      "constant": true,
      "inputs": [
        {
          "name": "",
          "type": "bytes32"
        }
      ],
      "name": "proofHistoryCount",
      "outputs": [
        {
          "name": "",
          "type": "uint256"
        }
      ],
      "payable": false,
      "stateMutability": "view",
      "type": "function"
    },
    {
      "constant": true,
      "inputs": [],
      "name": "APP_IPFS_HASH",
      "outputs": [
        {
          "name": "",
          "type": "string"
        }
      ],
      "payable": false,
      "stateMutability": "view",
      "type": "function"
    },
    {
      "constant": true,
      "inputs": [
        {
          "name": "",
          "type": "address"
        }
      ],
      "name": "addressResolutions",
      "outputs": [
        {
          "name": "",
          "type": "string"
        }
      ],
      "payable": false,
      "stateMutability": "view",
      "type": "function"
    },
    {
      "constant": true,
      "inputs": [
        {
          "name": "",
          "type": "bytes32"
        },
        {
          "name": "",
          "type": "uint256"
        }
      ],
      "name": "proofHistories",
      "outputs": [
        {
          "name": "domain",
          "type": "string"
        },
        {
          "name": "ethAddress",
          "type": "address"
        },
        {
          "name": "proof",
          "type": "bytes"
        },
        {
          "name": "proofType",
          "type": "uint256"
        },
        {
          "name": "time",
          "type": "uint256"
        }
      ],
      "payable": false,
      "stateMutability": "view",
      "type": "function"
    },
    {
      "constant": true,
      "inputs": [
        {
          "name": "",
          "type": "bytes32"
        }
      ],
      "name": "pendingMappings",
      "outputs": [
        {
          "name": "",
          "type": "string"
        }
      ],
      "payable": false,
      "stateMutability": "view",
      "type": "function"
    },
    {
      "constant": true,
      "inputs": [],
      "name": "VERSION",
      "outputs": [
        {
          "name": "",
          "type": "uint256"
        }
      ],
      "payable": false,
      "stateMutability": "view",
      "type": "function"
    },
    {
      "inputs": [],
      "payable": false,
      "stateMutability": "nonpayable",
      "type": "constructor"
    },
    {
      "anonymous": false,
      "inputs": [
        {
          "indexed": true,
          "name": "domain",
          "type": "string"
        },
        {
          "indexed": true,
          "name": "ethAddress",
          "type": "address"
        },
        {
          "indexed": false,
          "name": "date",
          "type": "uint256"
        }
      ],
      "name": "MappingCreated",
      "type": "event"
    },
    {
      "constant": false,
      "inputs": [
        {
          "name": "_domainRoot",
          "type": "string"
        },
        {
          "name": "_useWww",
          "type": "bool"
        }
      ],
      "name": "mapDomainFromJson",
      "outputs": [],
      "payable": true,
      "stateMutability": "payable",
      "type": "function"
    },
    {
      "constant": false,
      "inputs": [
        {
          "name": "_domainRoot",
          "type": "string"
        }
      ],
      "name": "mapDomainFromTxtRecord",
      "outputs": [],
      "payable": true,
      "stateMutability": "payable",
      "type": "function"
    },
    {
      "constant": false,
      "inputs": [
        {
          "name": "myid",
          "type": "bytes32"
        },
        {
          "name": "result",
          "type": "string"
        }
      ],
      "name": "__callback",
      "outputs": [],
      "payable": false,
      "stateMutability": "nonpayable",
      "type": "function"
    },
    {
      "constant": false,
      "inputs": [
        {
          "name": "_qId",
          "type": "bytes32"
        },
        {
          "name": "_result",
          "type": "string"
        },
        {
          "name": "_proof",
          "type": "bytes"
        }
      ],
      "name": "__callback",
      "outputs": [],
      "payable": false,
      "stateMutability": "nonpayable",
      "type": "function"
    },
    {
      "constant": true,
      "inputs": [
        {
          "name": "_domain",
          "type": "bytes32"
        },
        {
          "name": "_index",
          "type": "uint256"
        }
      ],
      "name": "getProofHistory",
      "outputs": [
        {
          "name": "",
          "type": "string"
        },
        {
          "name": "",
          "type": "address"
        },
        {
          "name": "",
          "type": "bytes"
        },
        {
          "name": "",
          "type": "uint256"
        },
        {
          "name": "",
          "type": "uint256"
        }
      ],
      "payable": false,
      "stateMutability": "view",
      "type": "function"
    }
  ],
  "bytecode": "0x608060405234801561001057600080fd5b50612ed8806100206000396000f3006080604052600436106100a05763ffffffff60e060020a6000350416632521e3ba81146100a557806327dc297e146100d957806338bbfa5014610139578063518ef512146101d5578063635b2e1a146102215780636de2fa9c1461024b5780637d98298d1461036b57806396a32db0146103f5578063ba70fb8e14610416578063bcb8e3e314610466578063ecd6c81314610481578063ffa1ad7414610499575b600080fd5b3480156100b157600080fd5b506100bd6004356104ae565b60408051600160a060020a039092168252519081900360200190f35b3480156100e557600080fd5b5060408051602060046024803582810135601f81018590048502860185019096528585526101379583359536956044949193909101919081908401838280828437509497506104c99650505050505050565b005b34801561014557600080fd5b5060408051602060046024803582810135601f810185900485028601850190965285855261013795833595369560449491939091019190819084018382808284375050604080516020601f89358b018035918201839004830284018301909452808352979a9998810197919650918201945092508291508401838280828437509497506104e99650505050505050565b6040805160206004803580820135601f81018490048402850184019095528484526101379436949293602493928401919081908401838280828437509497506109d49650505050505050565b34801561022d57600080fd5b50610239600435610b95565b60408051918252519081900360200190f35b34801561025757600080fd5b50610266600435602435610ba7565b604051808060200186600160a060020a0316600160a060020a0316815260200180602001858152602001848152602001838103835288818151815260200191508051906020019080838360005b838110156102cb5781810151838201526020016102b3565b50505050905090810190601f1680156102f85780820380516001836020036101000a031916815260200191505b50838103825286518152865160209182019188019080838360005b8381101561032b578181015183820152602001610313565b50505050905090810190601f1680156103585780820380516001836020036101000a031916815260200191505b5097505050505050505060405180910390f35b34801561037757600080fd5b50610380610dd9565b6040805160208082528351818301528351919283929083019185019080838360005b838110156103ba5781810151838201526020016103a2565b50505050905090810190601f1680156103e75780820380516001836020036101000a031916815260200191505b509250505060405180910390f35b34801561040157600080fd5b50610380600160a060020a0360043516610e39565b6040805160206004803580820135601f8101849004840285018401909552848452610137943694929360249392840191908190840183828082843750949750505050913515159250610ed4915050565b34801561047257600080fd5b506102666004356024356110cb565b34801561048d57600080fd5b50610380600435611239565b3480156104a557600080fd5b506102396112a1565b600660205260009081526040902054600160a060020a031681565b6040805160008152602081019091526104e590839083906104e9565b5050565b606060006104f56112a6565b600160a060020a031633600160a060020a031614151561055f576040805160e560020a62461bcd02815260206004820152601360248201527f556e617574686f72697a65642063616c6c657200000000000000000000000000604482015290519081900360640190fd5b60008581526008602090815260409182902080548351601f6002610100600185161502600019019093169290920491820184900484028101840190945280845290918301828280156105f25780601f106105c7576101008083540402835291602001916105f2565b820191906000526020600020905b8154815290600101906020018083116105d557829003601f168201915b505060408051602081810180845260008084528d815260089092529290209051959750610626959094509092509050612dfd565b5061063084611498565b90506000825111151561068d576040805160e560020a62461bcd02815260206004820152600e60248201527f556e6b6e6f776e20646f6d61696e000000000000000000000000000000000000604482015290519081900360640190fd5b600160a060020a03811615156106ed576040805160e560020a62461bcd02815260206004820152601b60248201527f4e6f206164647265737320666f7220676976656e20646f6d61696e0000000000604482015290519081900360640190fd5b60096000836040518082805190602001908083835b602083106107215780518252601f199092019160209182019101610702565b51815160209384036101000a60001901801990921691161790526040805192909401829003909120865285810196909652509283016000908120845160a081018652888152600160a060020a038816818801529485018990526060850182905242608086015280546001810180835591835291869020855180519297600590940290910194506107b5935084920190612dfd565b50602082810151600183018054600160a060020a031916600160a060020a03909216919091179055604083015180516107f49260028501920190612dfd565b5060608201518160030155608082015181600401555050506001600a6000846040518082805190602001908083835b602083106108425780518252601f199092019160209182019101610823565b6001836020036101000a038019825116818451168082178552505050505050905001915050604051809103902060001916600019168152602001908152602001600020600082825401925050819055508060066000846040518082805190602001908083835b602083106108c75780518252601f1990920191602091820191016108a8565b51815160209384036101000a600019018019909216911617905260408051929094018290039091208652858101969096525092830160009081208054600160a060020a031916600160a060020a039788161790559486168552505060078252909120835161093792850190612dfd565b5080600160a060020a0316826040518082805190602001908083835b602083106109725780518252601f199092019160209182019101610953565b51815160209384036101000a60001901801990921691161790526040805192909401829003822042835293519395507ff2a1d7258f36e4168aee3bb83ed7585fc4f534074d8fa8dae069598dbadbc43194509083900301919050a35050505050565b600030600160a060020a031631610a1f6040805190810160405280600b81526020017f636f6d7075746174696f6e00000000000000000000000000000000000000000081525061164d565b1115610a9b576040805160e560020a62461bcd02815260206004820152602360248201527f496e73756666696369656e742066756e647320746f2063616c6c204f7261636c60448201527f697a650000000000000000000000000000000000000000000000000000000000606482015290519081900360840190fd5b610ac47f11000000000000000000000000000000000000000000000000000000000000006118b1565b604080518082018252600b81527f636f6d7075746174696f6e000000000000000000000000000000000000000000602080830191909152825160a081018452602e9381019384527f516d4e64374338427755716668667136787952524d7a786b31763364414c516a60608201527f44787742673479454a6b5532344400000000000000000000000000000000000060808201529283528201849052610b6c91620493e0611abf565b60008181526008602090815260409091208451929350610b90929091850190612dfd565b505050565b600a6020526000908152604090205481565b600082815260096020526040812080546060929183918391829187908110610bcb57fe5b600091825260208083208a84526009909152604090922080546005909202909201919088908110610bf857fe5b60009182526020808320600160059093020191909101548a8352600990915260409091208054600160a060020a039092169189908110610c3457fe5b600091825260208083208c845260099091526040909220805460059290920290920160020191908a908110610c6557fe5b60009182526020808320600360059093020191909101548c83526009909152604090912080548b908110610c9557fe5b600091825260209182902060046005909202010154855460408051601f600260001961010060018716150201909416939093049283018590048502810185019091528181529192879190830182828015610d305780601f10610d0557610100808354040283529160200191610d30565b820191906000526020600020905b815481529060010190602001808311610d1357829003601f168201915b5050865460408051602060026001851615610100026000190190941693909304601f8101849004840282018401909252818152959a5088945092508401905082828015610dbe5780601f10610d9357610100808354040283529160200191610dbe565b820191906000526020600020905b815481529060010190602001808311610da157829003601f168201915b50505050509250945094509450945094509295509295909350565b606060405190810160405280602e81526020017f516d4e64374338427755716668667136787952524d7a786b31763364414c516a81526020017f44787742673479454a6b5532344400000000000000000000000000000000000081525081565b60076020908152600091825260409182902080548351601f600260001961010060018616150201909316929092049182018490048402810184019094528084529091830182828015610ecc5780601f10610ea157610100808354040283529160200191610ecc565b820191906000526020600020905b815481529060010190602001808311610eaf57829003601f168201915b505050505081565b600030600160a060020a031631610f1f6040805190810160405280600381526020017f55524c000000000000000000000000000000000000000000000000000000000081525061164d565b1115610f9b576040805160e560020a62461bcd02815260206004820152602360248201527f496e73756666696369656e742066756e647320746f2063616c6c204f7261636c60448201527f697a650000000000000000000000000000000000000000000000000000000000606482015290519081900360840190fd5b610fc47f11000000000000000000000000000000000000000000000000000000000000006118b1565b610fd66005848463ffffffff611caf16565b604080518082018252600381527f55524c0000000000000000000000000000000000000000000000000000000000602080830191909152600580548451601f600260001961010060018616150201909316929092049182018490048402810184019095528085526110a194928301828280156110935780601f1061106857610100808354040283529160200191611093565b820191906000526020600020905b81548152906001019060200180831161107657829003601f168201915b5050505050620493e0611e47565b600081815260086020908152604090912085519293506110c5929091860190612dfd565b50505050565b6009602052816000526040600020818154811015156110e657fe5b60009182526020918290206005919091020180546040805160026001841615610100026000190190931692909204601f81018590048502830185019091528082529194509250839183018282801561117f5780601f106111545761010080835404028352916020019161117f565b820191906000526020600020905b81548152906001019060200180831161116257829003601f168201915b505050506001838101546002808601805460408051602061010097841615979097026000190190921693909304601f81018690048602820186019093528281529596600160a060020a039093169592945091928301828280156112235780601f106111f857610100808354040283529160200191611223565b820191906000526020600020905b81548152906001019060200180831161120657829003601f168201915b5050505050908060030154908060040154905085565b60086020908152600091825260409182902080548351601f600260001961010060018616150201909316929092049182018490048402810184019094528084529091830182828015610ecc5780601f10610ea157610100808354040283529160200191610ecc565b600181565b60008054600160a060020a031615806112d157506000546112cf90600160a060020a0316612246565b155b156112e2576112e0600061224a565b505b6000809054906101000a9004600160a060020a0316600160a060020a03166338cc48316040518163ffffffff1660e060020a028152600401602060405180830381600087803b15801561133457600080fd5b505af1158015611348573d6000803e3d6000fd5b505050506040513d602081101561135e57600080fd5b5051600154600160a060020a03908116911614611413576000809054906101000a9004600160a060020a0316600160a060020a03166338cc48316040518163ffffffff1660e060020a028152600401602060405180830381600087803b1580156113c757600080fd5b505af11580156113db573d6000803e3d6000fd5b505050506040513d60208110156113f157600080fd5b505160018054600160a060020a031916600160a060020a039092169190911790555b600160009054906101000a9004600160a060020a0316600160a060020a031663c281d19e6040518163ffffffff1660e060020a028152600401602060405180830381600087803b15801561146657600080fd5b505af115801561147a573d6000803e3d6000fd5b505050506040513d602081101561149057600080fd5b505190505b90565b60008181808060025b602a811015611642576101008402935084818151811015156114bf57fe5b90602001015160f860020a900460f860020a0260f860020a9004925084816001018151811015156114ec57fe5b016020015160f860020a9081900481020491506061600160a060020a038416108015906115235750606683600160a060020a031611155b1561153357605783039250611597565b604183600160a060020a0316101580156115575750604683600160a060020a031611155b1561156757603783039250611597565b603083600160a060020a03161015801561158b5750603983600160a060020a031611155b15611597576030830392505b606182600160a060020a0316101580156115bb5750606682600160a060020a031611155b156115cb5760578203915061162f565b604182600160a060020a0316101580156115ef5750604682600160a060020a031611155b156115ff5760378203915061162f565b603082600160a060020a0316101580156116235750603982600160a060020a031611155b1561162f576030820391505b60108302820193909301926002016114a1565b509195945050505050565b60008054600160a060020a03161580611678575060005461167690600160a060020a0316612246565b155b1561168957611687600061224a565b505b6000809054906101000a9004600160a060020a0316600160a060020a03166338cc48316040518163ffffffff1660e060020a028152600401602060405180830381600087803b1580156116db57600080fd5b505af11580156116ef573d6000803e3d6000fd5b505050506040513d602081101561170557600080fd5b5051600154600160a060020a039081169116146117ba576000809054906101000a9004600160a060020a0316600160a060020a03166338cc48316040518163ffffffff1660e060020a028152600401602060405180830381600087803b15801561176e57600080fd5b505af1158015611782573d6000803e3d6000fd5b505050506040513d602081101561179857600080fd5b505160018054600160a060020a031916600160a060020a039092169190911790555b6001546040517f524f3889000000000000000000000000000000000000000000000000000000008152602060048201818152855160248401528551600160a060020a039094169363524f388993879383926044909201919085019080838360005b8381101561183357818101518382015260200161181b565b50505050905090810190601f1680156118605780820380516001836020036101000a031916815260200191505b5092505050602060405180830381600087803b15801561187f57600080fd5b505af1158015611893573d6000803e3d6000fd5b505050506040513d60208110156118a957600080fd5b505192915050565b600054600160a060020a031615806118db57506000546118d990600160a060020a0316612246565b155b156118ec576118ea600061224a565b505b6000809054906101000a9004600160a060020a0316600160a060020a03166338cc48316040518163ffffffff1660e060020a028152600401602060405180830381600087803b15801561193e57600080fd5b505af1158015611952573d6000803e3d6000fd5b505050506040513d602081101561196857600080fd5b5051600154600160a060020a03908116911614611a1d576000809054906101000a9004600160a060020a0316600160a060020a03166338cc48316040518163ffffffff1660e060020a028152600401602060405180830381600087803b1580156119d157600080fd5b505af11580156119e5573d6000803e3d6000fd5b505050506040513d60208110156119fb57600080fd5b505160018054600160a060020a031916600160a060020a039092169190911790555b600154604080517f688dcfd70000000000000000000000000000000000000000000000000000000081527fff00000000000000000000000000000000000000000000000000000000000000841660048201529051600160a060020a039092169163688dcfd79160248082019260009290919082900301818387803b158015611aa457600080fd5b505af1158015611ab8573d6000803e3d6000fd5b5050505050565b60008054606090600160a060020a03161580611aed5750600054611aeb90600160a060020a0316612246565b155b15611afe57611afc600061224a565b505b6000809054906101000a9004600160a060020a0316600160a060020a03166338cc48316040518163ffffffff1660e060020a028152600401602060405180830381600087803b158015611b5057600080fd5b505af1158015611b64573d6000803e3d6000fd5b505050506040513d6020811015611b7a57600080fd5b5051600154600160a060020a03908116911614611c2f576000809054906101000a9004600160a060020a0316600160a060020a03166338cc48316040518163ffffffff1660e060020a028152600401602060405180830381600087803b158015611be357600080fd5b505af1158015611bf7573d6000803e3d6000fd5b505050506040513d6020811015611c0d57600080fd5b505160018054600160a060020a031916600160a060020a039092169190911790555b6040805160028082526060820190925290816020015b6060815260200190600190039081611c45575050845181519192509082906000908110611c6e57fe5b602090810290910101528360016020020151816001815181101515611c8f57fe5b60209081029091010152611ca485828561225a565b91505b509392505050565b80611d7f57611d7a611d1c606060405190810160405280602981526020017f2f7070636f6e666967292e617574686f72697a6564436f6e666967757261746981526020017f6f6e41646472657373000000000000000000000000000000000000000000000081525061266c565b611d69611d75611d2b8661266c565b611d696040805190810160405280600d81526020017f6a736f6e2868747470733a2f2f0000000000000000000000000000000000000081525061266c565b9063ffffffff61269216565b61266c565b611e34565b611e34611de7606060405190810160405280602981526020017f2f7070636f6e666967292e617574686f72697a6564436f6e666967757261746981526020017f6f6e41646472657373000000000000000000000000000000000000000000000081525061266c565b611d69611d75611df68661266c565b611d696040805190810160405280601181526020017f6a736f6e2868747470733a2f2f7777772e00000000000000000000000000000081525061266c565b80516110c5918591602090910190612dfd565b600080548190600160a060020a03161580611e745750600054611e7290600160a060020a0316612246565b155b15611e8557611e83600061224a565b505b6000809054906101000a9004600160a060020a0316600160a060020a03166338cc48316040518163ffffffff1660e060020a028152600401602060405180830381600087803b158015611ed757600080fd5b505af1158015611eeb573d6000803e3d6000fd5b505050506040513d6020811015611f0157600080fd5b5051600154600160a060020a03908116911614611fb6576000809054906101000a9004600160a060020a0316600160a060020a03166338cc48316040518163ffffffff1660e060020a028152600401602060405180830381600087803b158015611f6a57600080fd5b505af1158015611f7e573d6000803e3d6000fd5b505050506040513d6020811015611f9457600080fd5b505160018054600160a060020a031916600160a060020a039092169190911790555b600154604080517f2ef3accc0000000000000000000000000000000000000000000000000000000081526024810186905260048101918252875160448201528751600160a060020a0390931692632ef3accc9289928892829160640190602086019080838360005b8381101561203657818101518382015260200161201e565b50505050905090810190601f1680156120635780820380516001836020036101000a031916815260200191505b509350505050602060405180830381600087803b15801561208357600080fd5b505af1158015612097573d6000803e3d6000fd5b505050506040513d60208110156120ad57600080fd5b50519050670de0b6b3a76400003a8402018111156120ce5760009150611ca7565b6001546040517fc51be90f00000000000000000000000000000000000000000000000000000000815260006004820181815260648301879052608060248401908152895160848501528951600160a060020a039095169463c51be90f948794938c938c938c93604481019160a49091019060208801908083838c5b83811015612161578181015183820152602001612149565b50505050905090810190601f16801561218e5780820380516001836020036101000a031916815260200191505b50838103825285518152855160209182019187019080838360005b838110156121c15781810151838201526020016121a9565b50505050905090810190601f1680156121ee5780820380516001836020036101000a031916815260200191505b5096505050505050506020604051808303818588803b15801561221057600080fd5b505af1158015612224573d6000803e3d6000fd5b50505050506040513d602081101561223b57600080fd5b505195945050505050565b3b90565b6000612254612701565b92915050565b600080548190606090600160a060020a0316158061228a575060005461228890600160a060020a0316612246565b155b1561229b57612299600061224a565b505b6000809054906101000a9004600160a060020a0316600160a060020a03166338cc48316040518163ffffffff1660e060020a028152600401602060405180830381600087803b1580156122ed57600080fd5b505af1158015612301573d6000803e3d6000fd5b505050506040513d602081101561231757600080fd5b5051600154600160a060020a039081169116146123cc576000809054906101000a9004600160a060020a0316600160a060020a03166338cc48316040518163ffffffff1660e060020a028152600401602060405180830381600087803b15801561238057600080fd5b505af1158015612394573d6000803e3d6000fd5b505050506040513d60208110156123aa57600080fd5b505160018054600160a060020a031916600160a060020a039092169190911790555b600154604080517f2ef3accc0000000000000000000000000000000000000000000000000000000081526024810187905260048101918252885160448201528851600160a060020a0390931692632ef3accc928a928992829160640190602086019080838360005b8381101561244c578181015183820152602001612434565b50505050905090810190601f1680156124795780820380516001836020036101000a031916815260200191505b509350505050602060405180830381600087803b15801561249957600080fd5b505af11580156124ad573d6000803e3d6000fd5b505050506040513d60208110156124c357600080fd5b50519150670de0b6b3a76400003a8502018211156124e45760009250612663565b6124ed85612a29565b6001546040517fc55c1cb6000000000000000000000000000000000000000000000000000000008152600060048201818152606483018990526080602484019081528b5160848501528b51959650600160a060020a039094169463c55c1cb69488948d9389938d939192604481019160a49091019060208801908083838c5b8381101561258457818101518382015260200161256c565b50505050905090810190601f1680156125b15780820380516001836020036101000a031916815260200191505b50838103825285518152855160209182019187019080838360005b838110156125e45781810151838201526020016125cc565b50505050905090810190601f1680156126115780820380516001836020036101000a031916815260200191505b5096505050505050506020604051808303818588803b15801561263357600080fd5b505af1158015612647573d6000803e3d6000fd5b50505050506040513d602081101561265e57600080fd5b505192505b50509392505050565b612674612e7b565b50604080518082019091528151815260209182019181019190915290565b606080600083600001518560000151016040519080825280601f01601f1916602001820160405280156126cf578160200160208202803883390190505b5091506020820190506126eb8186602001518760000151612daa565b845160208501518551611ca79284019190612daa565b600080612721731d3b2638a7cc9f2cb3d298a3da7a90b67e5506ed612246565b11156127925760008054600160a060020a031916731d3b2638a7cc9f2cb3d298a3da7a90b67e5506ed17905560408051808201909152600b81527f6574685f6d61696e6e6574000000000000000000000000000000000000000000602082015261278a90612dee565b506001611495565b60006127b173c03a2615d5efaf5f49f60b7bb6583eaec212fdf1612246565b111561281a5760008054600160a060020a03191673c03a2615d5efaf5f49f60b7bb6583eaec212fdf117905560408051808201909152600c81527f6574685f726f707374656e330000000000000000000000000000000000000000602082015261278a90612dee565b600061283973b7a07bcf2ba2f2703b24c0691b5278999c59ac7e612246565b11156128a25760008054600160a060020a03191673b7a07bcf2ba2f2703b24c0691b5278999c59ac7e17905560408051808201909152600981527f6574685f6b6f76616e0000000000000000000000000000000000000000000000602082015261278a90612dee565b60006128c173146500cfd35b22e4a392fe0adc06de1a1368ed48612246565b111561292a5760008054600160a060020a03191673146500cfd35b22e4a392fe0adc06de1a1368ed4817905560408051808201909152600b81527f6574685f72696e6b656279000000000000000000000000000000000000000000602082015261278a90612dee565b6000612949736f485c8bf6fc43ea212e93bbf8ce046c7f1cb475612246565b111561297d575060008054600160a060020a031916736f485c8bf6fc43ea212e93bbf8ce046c7f1cb4751790556001611495565b600061299c7320e12a1f859b3feae5fb2a0a32c18f5a65555bbf612246565b11156129d0575060008054600160a060020a0319167320e12a1f859b3feae5fb2a0a32c18f5a65555bbf1790556001611495565b60006129ef7351efaf4c8b3c9afbd5ab9f4bbc82784ab6ef8faa612246565b1115612a23575060008054600160a060020a0319167351efaf4c8b3c9afbd5ab9f4bbc82784ab6ef8faa1790556001611495565b50600090565b606060008060606000806000606060008060008b5199506000985089604051908082528060200260200182016040528015612a7857816020015b6060815260200190600190039081612a635790505b509750600096505b89871015612b11578b87815181101515612a9657fe5b906020019060200201518888815181101515612aae57fe5b90602001906020020181905250601760018989815181101515612acd57fe5b906020019060200201515103811515612ae257fe5b048888815181101515612af157fe5b906020019060200201515101600301890198508680600101975050612a80565b6040805160018b01808252601f1960209c8d01168201909b019091526000965060808b019550898015612b4e578160200160208202803883390190505b5093505b6001861015612ba55760f860020a85028660018110612b6d57fe5b1a60f860020a028487815181101515612b8257fe5b906020010190600160f860020a031916908160001a905350600190950194612b52565b600096505b89871015612d9a5783517f5f0000000000000000000000000000000000000000000000000000000000000090859088908110612be257fe5b906020010190600160f860020a031916908160001a905350600190950194600092505b8787815181101515612c1357fe5b9060200190602002015151831015612d4357601783061515612cd5576018838989815181101515612c4057fe5b9060200190602002015151031015612c7257828888815181101515612c6157fe5b906020019060200201515103612c75565b60175b60400191508590505b80860360011115612cd55760f860020a820281870360018110612c9d57fe5b1a60f860020a028487815181101515612cb257fe5b906020010190600160f860020a031916908160001a905350600190950194612c7e565b8787815181101515612ce357fe5b9060200190602002015183815181101515612cfa57fe5b90602001015160f860020a900460f860020a028487815181101515612d1b57fe5b906020010190600160f860020a031916908160001a9053506001958601959290920191612c05565b83517fff0000000000000000000000000000000000000000000000000000000000000090859088908110612d7357fe5b906020010190600160f860020a031916908160001a90535060019687019690950194612baa565b50919a9950505050505050505050565b60005b60208210612dcf578251845260209384019390920191601f1990910190612dad565b50905182516020929092036101000a6000190180199091169116179052565b80516104e59060029060208401905b828054600181600116156101000203166002900490600052602060002090601f016020900481019282601f10612e3e57805160ff1916838001178555612e6b565b82800160010185558215612e6b579182015b82811115612e6b578251825591602001919060010190612e50565b50612e77929150612e92565b5090565b604080518082019091526000808252602082015290565b61149591905b80821115612e775760008155600101612e985600a165627a7a723058201a989c90141102b6341281ddd840c3fdc24ee274fe1eff6400d16019ed4472010029",
  "source": "pragma solidity ^0.4.23;\n\nimport \"./usingOraclize.sol\";\nimport \"./libraries/OraclizeQueryBuilder.sol\";\n\n/**\n * @title Pool Party Name Service\n * @dev A contract that maps Ethereum addresses to human readable internet domain names\n * @author - Rick Feiner and Shane van Coller\n */\ncontract PoolPartyNameService is usingOraclize {\n    using OraclizeQueryBuilder for OraclizeQueryBuilder.OraclizeQueries;\n\n    /* Constants */\n    uint256 public constant VERSION = 1;\n    string public constant APP_IPFS_HASH = \"QmNd7C8BwUqfhfq6xyRRMzxk1v3dALQjDxwBg4yEJkU24D\"; //Java app\n\n    OraclizeQueryBuilder.OraclizeQueries oQueries;\n\n    mapping(bytes32 => address) public hashedStringResolutions;\n    mapping(address => string) public addressResolutions;\n    mapping(bytes32 => string) public pendingMappings;\n    mapping(bytes32 => ProofHistory[]) public proofHistories;\n    mapping(bytes32=> uint256) public proofHistoryCount;\n\n    struct ProofHistory {\n        string domain;\n        address ethAddress;\n        bytes proof;\n        uint256 proofType;\n        uint256 time;\n    }\n\n    event MappingCreated(string indexed domain, address indexed ethAddress, uint256 date);\n\n    /**\n     * @dev Constructor initializing parameters\n     */\n    constructor() public {\n    }\n\n    /**\n     * @dev Oraclize call to verify a domain using hosted JSON file\n     * @param _domainRoot Root domain\n     * @param _useWww Whether or not to use www subdomain for the call to Oraclize\n     */\n    function mapDomainFromJson(string _domainRoot, bool _useWww)\n        public\n        payable\n    {\n        require(oraclize_getPrice(\"URL\") <= address(this).balance, \"Insufficient funds to call Oraclize\");\n\n        oraclize_setProof(proofType_TLSNotary | proofStorage_IPFS);\n        oQueries.buildQueries(_domainRoot, _useWww);\n        bytes32 _oraclizeQueryId = oraclize_query(\"URL\", oQueries.oraclizeQueryETHAddress, 300000);\n\n        pendingMappings[_oraclizeQueryId] = _domainRoot;\n    }\n\n    /**\n     * @dev Oraclize call to verify a domain using TXT records\n     * @param _domainRoot Root domain\n     */\n    function mapDomainFromTxtRecord(string _domainRoot)\n        public\n        payable\n    {\n        require(oraclize_getPrice(\"computation\") <= address(this).balance, \"Insufficient funds to call Oraclize\");\n\n        oraclize_setProof(proofType_TLSNotary | proofStorage_IPFS);\n        bytes32 _oraclizeQueryId = oraclize_query(\"computation\", [APP_IPFS_HASH, _domainRoot], 300000);\n\n        pendingMappings[_oraclizeQueryId] = _domainRoot;\n    }\n\n    /**\n     * @dev Oraclize callback - assume the result is always an address no matter which method (URL or Computation) was used to get it. Tx will fail if returned value is not an address\n     * @param _qId ID used to tie result back to the original query\n     * @param _result Result of the oracle query\n     */\n    function __callback(bytes32 _qId, string _result, bytes _proof) public {\n        require(msg.sender == oraclize_cbAddress(), \"Unauthorized caller\");\n\n        string memory _domain = pendingMappings[_qId];\n\n        //This oraclize call is no longer pending\n        pendingMappings[_qId] = \"\";\n        address _ethAddress = parseAddr(_result);\n\n        require (bytes(_domain).length > 0, \"Unknown domain\");\n        require (_ethAddress != address(0x0), \"No address for given domain\");\n\n        //Add a historical record of the change\n        proofHistories[keccak256(_domain)].push(ProofHistory({domain:_domain, ethAddress: _ethAddress, proof:_proof, proofType:0, time:now}));\n        proofHistoryCount[keccak256(_domain)] += 1;\n\n        //Create the mapping\n        hashedStringResolutions[keccak256(_domain)] = _ethAddress;\n        //TODO: We can map one address to multiple domains -- is this reverse lookup even meaningful?\n        addressResolutions[_ethAddress] = _domain;\n\n        emit MappingCreated(_domain, _ethAddress, now);\n    }\n\n    /**\n     * @dev Solidity cannot return complex types, so this is a custom getter for proofHistories for a specific domain at a specific index.\n     * @param _domain The domain to lookup\n     * @param _index The index in the array to retrieve\n     */\n    function getProofHistory(bytes32 _domain, uint256 _index)\n        public\n        view\n        returns (string, address, bytes, uint256, uint256)\n    {\n        return (\n            proofHistories[_domain][_index].domain,\n            proofHistories[_domain][_index].ethAddress,\n            proofHistories[_domain][_index].proof,\n            proofHistories[_domain][_index].proofType,\n            proofHistories[_domain][_index].time\n        );\n    }\n}",
  "sourcePath": "/Users/shanevancoller/Development/blockchain/PoolParty/PoolPartyNameService/contracts/PoolPartyNameService.sol",
  "compiler": {
    "name": "solc",
    "version": "0.4.23+commit.124ca40d.Emscripten.clang"
  },
  "schemaVersion": "2.0.0",
  "updatedAt": "2018-06-08T03:57:55.209Z"
}