{
  "contractName": "PoolPartyFactory",
  "abi": [
    {
      "constant": true,
      "inputs": [],
      "name": "dueDiligenceDuration",
      "outputs": [
        {
          "name": "",
          "type": "uint256"
        }
      ],
      "payable": false,
      "stateMutability": "view",
      "type": "function"
    },
    {
      "constant": true,
      "inputs": [],
      "name": "nameServiceAddress",
      "outputs": [
        {
          "name": "",
          "type": "address"
        }
      ],
      "payable": false,
      "stateMutability": "view",
      "type": "function"
    },
    {
      "constant": true,
      "inputs": [],
      "name": "withdrawalFee",
      "outputs": [
        {
          "name": "",
          "type": "uint256"
        }
      ],
      "payable": false,
      "stateMutability": "view",
      "type": "function"
    },
    {
      "constant": true,
      "inputs": [],
      "name": "owner",
      "outputs": [
        {
          "name": "",
          "type": "address"
        }
      ],
      "payable": false,
      "stateMutability": "view",
      "type": "function"
    },
    {
      "constant": true,
      "inputs": [],
      "name": "feePercentage",
      "outputs": [
        {
          "name": "",
          "type": "uint256"
        }
      ],
      "payable": false,
      "stateMutability": "view",
      "type": "function"
    },
    {
      "constant": true,
      "inputs": [],
      "name": "poolPartyOwnerAddress",
      "outputs": [
        {
          "name": "",
          "type": "address"
        }
      ],
      "payable": false,
      "stateMutability": "view",
      "type": "function"
    },
    {
      "constant": false,
      "inputs": [
        {
          "name": "newOwner",
          "type": "address"
        }
      ],
      "name": "transferOwnership",
      "outputs": [],
      "payable": false,
      "stateMutability": "nonpayable",
      "type": "function"
    },
    {
      "constant": true,
      "inputs": [
        {
          "name": "",
          "type": "uint256"
        }
      ],
      "name": "poolAddresses",
      "outputs": [
        {
          "name": "",
          "type": "address"
        }
      ],
      "payable": false,
      "stateMutability": "view",
      "type": "function"
    },
    {
      "inputs": [
        {
          "name": "_poolPartyOwnerAddress",
          "type": "address"
        },
        {
          "name": "_nameServiceAddress",
          "type": "address"
        }
      ],
      "payable": false,
      "stateMutability": "nonpayable",
      "type": "constructor"
    },
    {
      "anonymous": false,
      "inputs": [
        {
          "indexed": true,
          "name": "poolAddress",
          "type": "address"
        },
        {
          "indexed": true,
          "name": "creator",
          "type": "address"
        },
        {
          "indexed": false,
          "name": "poolUrl",
          "type": "string"
        },
        {
          "indexed": false,
          "name": "date",
          "type": "uint256"
        }
      ],
      "name": "PoolPartyCreated",
      "type": "event"
    },
    {
      "anonymous": false,
      "inputs": [
        {
          "indexed": true,
          "name": "updater",
          "type": "address"
        },
        {
          "indexed": false,
          "name": "oldValue",
          "type": "uint256"
        },
        {
          "indexed": false,
          "name": "newValue",
          "type": "uint256"
        },
        {
          "indexed": false,
          "name": "date",
          "type": "uint256"
        }
      ],
      "name": "FeePercentageUpdate",
      "type": "event"
    },
    {
      "anonymous": false,
      "inputs": [
        {
          "indexed": true,
          "name": "updater",
          "type": "address"
        },
        {
          "indexed": false,
          "name": "oldValue",
          "type": "uint256"
        },
        {
          "indexed": false,
          "name": "newValue",
          "type": "uint256"
        },
        {
          "indexed": false,
          "name": "date",
          "type": "uint256"
        }
      ],
      "name": "WithdrawalFeeUpdate",
      "type": "event"
    },
    {
      "anonymous": false,
      "inputs": [
        {
          "indexed": true,
          "name": "updater",
          "type": "address"
        },
        {
          "indexed": false,
          "name": "oldValue",
          "type": "uint256"
        },
        {
          "indexed": false,
          "name": "newValue",
          "type": "uint256"
        },
        {
          "indexed": false,
          "name": "date",
          "type": "uint256"
        }
      ],
      "name": "DueDiligenceDurationUpdate",
      "type": "event"
    },
    {
      "anonymous": false,
      "inputs": [
        {
          "indexed": true,
          "name": "previousOwner",
          "type": "address"
        },
        {
          "indexed": true,
          "name": "newOwner",
          "type": "address"
        }
      ],
      "name": "OwnershipTransferred",
      "type": "event"
    },
    {
      "constant": false,
      "inputs": [
        {
          "name": "_rootDomain",
          "type": "string"
        },
        {
          "name": "_poolName",
          "type": "string"
        },
        {
          "name": "_poolDescription",
          "type": "string"
        },
        {
          "name": "_waterMark",
          "type": "uint256"
        },
        {
          "name": "_poolPrice",
          "type": "uint256"
        },
        {
          "name": "_retailPrice",
          "type": "uint256"
        },
        {
          "name": "_legalDocsHash",
          "type": "bytes"
        }
      ],
      "name": "createNewPoolParty",
      "outputs": [],
      "payable": false,
      "stateMutability": "nonpayable",
      "type": "function"
    },
    {
      "constant": true,
      "inputs": [],
      "name": "getAllPoolAddresses",
      "outputs": [
        {
          "name": "",
          "type": "address[]"
        }
      ],
      "payable": false,
      "stateMutability": "view",
      "type": "function"
    },
    {
      "constant": false,
      "inputs": [
        {
          "name": "_feePercentage",
          "type": "uint256"
        }
      ],
      "name": "setFeePercentage",
      "outputs": [],
      "payable": false,
      "stateMutability": "nonpayable",
      "type": "function"
    },
    {
      "constant": false,
      "inputs": [
        {
          "name": "_withdrawalFee",
          "type": "uint256"
        }
      ],
      "name": "setWithdrawalFeeAmount",
      "outputs": [],
      "payable": false,
      "stateMutability": "nonpayable",
      "type": "function"
    },
    {
      "constant": false,
      "inputs": [
        {
          "name": "_dueDiligenceDurationInSeconds",
          "type": "uint256"
        }
      ],
      "name": "setDueDiligenceDuration",
      "outputs": [],
      "payable": false,
      "stateMutability": "nonpayable",
      "type": "function"
    },
    {
      "constant": false,
      "inputs": [
        {
          "name": "_newOwner",
          "type": "address"
        }
      ],
      "name": "setPoolPartyOwnerAddress",
      "outputs": [],
      "payable": false,
      "stateMutability": "nonpayable",
      "type": "function"
    }
  ],
  "bytecode": "0x608060405234801561001057600080fd5b506040516040806159e983398101604052805160209091015160008054600160a060020a03191633600160a060020a0390811691909117909155821615156100b957604080517f08c379a000000000000000000000000000000000000000000000000000000000815260206004820152601f60248201527f506f6f6c205061727479206f776e657220616464726573732069732030783000604482015290519081900360640190fd5b600160a060020a038116151561013057604080517f08c379a000000000000000000000000000000000000000000000000000000000815260206004820152601b60248201527f4e616d6520736572766963652061646472657373206973203078300000000000604482015290519081900360640190fd5b60066001556605543df729c00060025562093a8060035560048054600160a060020a03938416600160a060020a03199182161790915560058054929093169116179055615867806101826000396000f300608060405260043610620000de5763ffffffff7c0100000000000000000000000000000000000000000000000000000000600035041663018ce9518114620000e35780630bc606b2146200020d5780631765c07914620002285780631ce82d9914620002525780638bc7e8c414620002865780638da5cb5b146200029e578063a001ecdd14620002b6578063ae06c1b714620002ce578063b02bf3af14620002e9578063c56f1b441462000304578063dae184af146200036e578063dd8d9b351462000386578063f2fde38b14620003aa578063feb21b9c14620003ce575b600080fd5b348015620000f057600080fd5b506040805160206004803580820135601f81018490048402850184019095528484526200020b94369492936024939284019190819084018382808284375050604080516020601f89358b018035918201839004830284018301909452808352979a99988101979196509182019450925082915084018382808284375050604080516020601f89358b018035918201839004830284018301909452808352979a99988101979196509182019450925082915084018382808284375050604080516020601f60608a01358b0180359182018390048302840183018552818452989b8a359b838c01359b958601359a919950975060809094019550919350918201918190840183828082843750949750620003e99650505050505050565b005b3480156200021a57600080fd5b506200020b60043562000a42565b3480156200023557600080fd5b506200024062000b10565b60408051918252519081900360200190f35b3480156200025f57600080fd5b506200026a62000b16565b60408051600160a060020a039092168252519081900360200190f35b3480156200029357600080fd5b506200024062000b25565b348015620002ab57600080fd5b506200026a62000b2b565b348015620002c357600080fd5b506200024062000b3a565b348015620002db57600080fd5b506200020b60043562000b40565b348015620002f657600080fd5b506200020b60043562000c0f565b3480156200031157600080fd5b506200031c62000c84565b60408051602080825283518183015283519192839290830191858101910280838360005b838110156200035a57818101518382015260200162000340565b505050509050019250505060405180910390f35b3480156200037b57600080fd5b506200026a62000ce8565b3480156200039357600080fd5b506200020b600160a060020a036004351662000cf7565b348015620003b757600080fd5b506200020b600160a060020a036004351662000da3565b348015620003db57600080fd5b506200026a60043562000e3d565b8651600090151562000445576040805160e560020a62461bcd02815260206004820152601460248201527f526f6f7420646f6d61696e20697320656d707479000000000000000000000000604482015290519081900360640190fd5b865115156200049e576040805160e560020a62461bcd02815260206004820152601260248201527f506f6f6c204e616d6520697320656d7074790000000000000000000000000000604482015290519081900360640190fd5b85511515620004f7576040805160e560020a62461bcd02815260206004820152601960248201527f506f6f6c206465736372697074696f6e20697320656d70747900000000000000604482015290519081900360640190fd5b6000841162000550576040805160e560020a62461bcd02815260206004820152600f60248201527f506f6f6c20707269636520697320300000000000000000000000000000000000604482015290519081900360640190fd5b60008511620005a9576040805160e560020a62461bcd02815260206004820152600e60248201527f57617465724d61726b2069732030000000000000000000000000000000000000604482015290519081900360640190fd5b6000831162000602576040805160e560020a62461bcd02815260206004820152601160248201527f52657461696c2070726963652069732030000000000000000000000000000000604482015290519081900360640190fd5b87878787878787336200061462000e66565b808060200180602001806020018981526020018881526020018781526020018060200186600160a060020a0316600160a060020a0316815260200185810385528d818151815260200191508051906020019080838360005b83811015620006865781810151838201526020016200066c565b50505050905090810190601f168015620006b45780820380516001836020036101000a031916815260200191505b5085810384528c5181528c516020918201918e019080838360005b83811015620006e9578181015183820152602001620006cf565b50505050905090810190601f168015620007175780820380516001836020036101000a031916815260200191505b5085810383528b5181528b516020918201918d019080838360005b838110156200074c57818101518382015260200162000732565b50505050905090810190601f1680156200077a5780820380516001836020036101000a031916815260200191505b50858103825287518152875160209182019189019080838360005b83811015620007af57818101518382015260200162000795565b50505050905090810190601f168015620007dd5780820380516001836020036101000a031916815260200191505b509c50505050505050505050505050604051809103906000f08015801562000809573d6000803e3d6000fd5b5060015460025460048054600354600554604080517f0c810395000000000000000000000000000000000000000000000000000000008152948501969096526024840194909452600160a060020a039182166044840152606483015291821660848201529151929350831691630c8103959160a48082019260009290919082900301818387803b1580156200089d57600080fd5b505af1158015620008b2573d6000803e3d6000fd5b505060008054604080517ff2fde38b000000000000000000000000000000000000000000000000000000008152600160a060020a0392831660048201529051918616945063f2fde38b9350602480820193929182900301818387803b1580156200091b57600080fd5b505af115801562000930573d6000803e3d6000fd5b5050505060068190806001815401808255809150509060018203906000526020600020016000909192909190916101000a815481600160a060020a030219169083600160a060020a031602179055505033600160a060020a031681600160a060020a03167fd21a9932ba77af80ada8b92f7e2b7d1dec266dc9a3db632747c1e4498490ae058a426040518080602001838152602001828103825284818151815260200191508051906020019080838360005b83811015620009fc578181015183820152602001620009e2565b50505050905090810190601f16801562000a2a5780820380516001836020036101000a031916815260200191505b50935050505060405180910390a35050505050505050565b6000805433600160a060020a0390811691161462000a5f57600080fd5b6000821162000ab8576040805160e560020a62461bcd02815260206004820152601b60248201527f4475652064696c6967656e6365206475726174696f6e20697320300000000000604482015290519081900360640190fd5b506003805490829055604080518281526020810184905242818301529051600160a060020a033316917f3e6a8cea6639271828af429f058edf6b3f693bb38c94c12d81a43b36584311ba919081900360600190a25050565b60035481565b600554600160a060020a031681565b60025481565b600054600160a060020a031681565b60015481565b6000805433600160a060020a0390811691161462000b5d57600080fd5b603282111562000bb7576040805160e560020a62461bcd02815260206004820152601f60248201527f4665652070657263656e742069732067726561746572207468616e2035302500604482015290519081900360640190fd5b506001805490829055604080518281526020810184905242818301529051600160a060020a033316917f12561de23cd47cfdb19c134d55130c339c3e9b0819a59092a6aec8fb63ab18d7919081900360600190a25050565b6000805433600160a060020a0390811691161462000c2c57600080fd5b506002805490829055604080518281526020810184905242818301529051600160a060020a033316917f4fe217befe7a8ede2cc3ba2b1a7898a99126cd8f8775cad3ce1193d8b25d44d8919081900360600190a25050565b6060600680548060200260200160405190810160405280929190818152602001828054801562000cde57602002820191906000526020600020905b8154600160a060020a0316815260019091019060200180831162000cbf575b5050505050905090565b600454600160a060020a031681565b60005433600160a060020a0390811691161462000d1357600080fd5b600160a060020a038116151562000d74576040805160e560020a62461bcd02815260206004820152601f60248201527f506f6f6c205061727479206f776e657220616464726573732069732030783000604482015290519081900360640190fd5b6004805473ffffffffffffffffffffffffffffffffffffffff1916600160a060020a0392909216919091179055565b60005433600160a060020a0390811691161462000dbf57600080fd5b600160a060020a038116151562000dd557600080fd5b60008054604051600160a060020a03808516939216917f8be0079c531659141344cd1fd0a4f28419497f9722a3daafe3b4186f6b6457e091a36000805473ffffffffffffffffffffffffffffffffffffffff1916600160a060020a0392909216919091179055565b600680548290811062000e4c57fe5b600091825260209091200154600160a060020a0316905081565b6040516149c48062000e7883390190560060806040523480156200001157600080fd5b50604051620049c4380380620049c483398101604090815281516020830151918301516060840151608085015160a086015160c087015160e088015160008054600160a060020a03191633600160a060020a0316179055600a54600b54978a019998890198968701979596949593949290920192909111156200011b57604080517f08c379a000000000000000000000000000000000000000000000000000000000815260206004820152603060248201527f52657461696c732070726963652073686f756c64206e6f74206265206c65737360448201527f207468616e20706f6f6c20707269636500000000000000000000000000000000606482015290519081900360840190fd5b8751620001309060019060208b01906200033c565b508651620001469060029060208a01906200033c565b5085516200015c9060039060208901906200033c565b506009859055600a849055600b8390558151620001819060089060208501906200033c565b50601a8054600160a060020a031916600160a060020a038316179055600b54600a54620001f69190620001e190606490620001cc908490640100000000620002d78102620042311704565b90640100000000620041ec620002ea82021704565b90640100000000620044956200032482021704565b600e55601a5460408051600160a060020a0390921660208301819052429183018290526060808452600180546002600019828416156101000201909116049185018290527f134a2d5922a0f95967f604077661394523e302d18765968286f362d62aefa93b949093918190608082019086908015620002b95780601f106200028d57610100808354040283529160200191620002b9565b820191906000526020600020905b8154815290600101906020018083116200029b57829003601f168201915b505094505050505060405180910390a15050505050505050620003e1565b600082821115620002e457fe5b50900390565b600080831515620002ff57600091506200031d565b508282028284828115156200031057fe5b04146200031957fe5b8091505b5092915050565b60008082848115156200033357fe5b04949350505050565b828054600181600116156101000203166002900490600052602060002090601f016020900481019282601f106200037f57805160ff1916838001178555620003af565b82800160010185558215620003af579182015b82811115620003af57825182559160200191906001019062000392565b50620003bd929150620003c1565b5090565b620003de91905b80821115620003bd5760008155600101620003c8565b90565b6145d380620003f16000396000f3006080604052600436106102635763ffffffff60e060020a6000350416630885d182811461026557806309e69ede146102ef5780630c810395146103605780630e6fdaa1146103915780630ec9ebba146103c55780631765c079146103ec5780631a9f5f2b146104015780631cb95b141461044f5780631e4068c71461047857806321fcb0dd1461048d57806325d6ebcf1461049857806326242a0c146104bf57806326d8d9b1146104d457806329ef1919146104e95780633291f012146104fe5780633454ebfa1461051357806337419a16146105285780633e6326fc1461053d5780633f42ab731461055257806340e439e61461076757806340ff38b21461077c57806344f99e181461079157806348c54b9d146107a65780635291e3ea146107bb578063567668e7146107d05780636154b102146107e55780636f10cbd0146107fa5780636fb56cbd1461080f578063754ae4ce146108245780638bc7e8c4146108395780638c3135f21461084e5780638da5cb5b146108635780638dffb08e14610878578063916fa49d146108c15780639d76ea58146108d6578063a001ecdd146108eb578063abd5f3c714610900578063ac3d7f0d14610915578063aca34c111461092a578063b5545a3c14610ac9578063bef5c47914610ade578063c5dee05714610ae6578063c6c1decd14610afb578063ca32546914610b10578063ce1264b714610b25578063d633f16c14610b3a578063dae184af14610b93578063e84fff9d14610ba8578063eee870fa14610bbd578063f022869214610cee578063f19e9d8114610d27578063f2fde38b14610d3c578063f3466dfa14610d5d575b005b34801561027157600080fd5b5061027a610d72565b6040805160208082528351818301528351919283929083019185019080838360005b838110156102b457818101518382015260200161029c565b50505050905090810190601f1680156102e15780820380516001836020036101000a031916815260200191505b509250505060405180910390f35b3480156102fb57600080fd5b50610310600160a060020a0360043516610e00565b604080519a8b5260208b0199909952898901979097526060890195909552921515608088015290151560a087015260c086015260e085015261010084015261012083015251908190036101400190f35b34801561036c57600080fd5b50610263600435602435600160a060020a036044358116906064359060843516610e53565b34801561039d57600080fd5b506103a9600435611049565b60408051600160a060020a039092168252519081900360200190f35b3480156103d157600080fd5b506103da611071565b60408051918252519081900360200190f35b3480156103f857600080fd5b506103da611077565b34801561040d57600080fd5b50610422600160a060020a036004351661107d565b60405182151581526020810182600181111561043a57fe5b60ff1681526020019250505060405180910390f35b34801561045b57600080fd5b5061046461109b565b604080519115158252519081900360200190f35b34801561048457600080fd5b5061027a6110ab565b610263600435611106565b3480156104a457600080fd5b50610263600160a060020a036004351660ff602435166114bb565b3480156104cb57600080fd5b50610464611806565b3480156104e057600080fd5b506103da611828565b3480156104f557600080fd5b506103da61182e565b34801561050a57600080fd5b50610263611834565b34801561051f57600080fd5b506103da6119c5565b34801561053457600080fd5b5061027a6119cb565b34801561054957600080fd5b506103a9611a26565b34801561055e57600080fd5b50610567611a35565b6040518089600160a060020a0316600160a060020a0316815260200188600160a060020a0316600160a060020a0316815260200187600160a060020a0316600160a060020a031681526020018615151515815260200180602001806020018060200180602001858103855289818151815260200191508051906020019080838360005b838110156106025781810151838201526020016105ea565b50505050905090810190601f16801561062f5780820380516001836020036101000a031916815260200191505b5085810384528851815288516020918201918a019080838360005b8381101561066257818101518382015260200161064a565b50505050905090810190601f16801561068f5780820380516001836020036101000a031916815260200191505b50858103835287518152875160209182019189019080838360005b838110156106c25781810151838201526020016106aa565b50505050905090810190601f1680156106ef5780820380516001836020036101000a031916815260200191505b50858103825286518152865160209182019188019080838360005b8381101561072257818101518382015260200161070a565b50505050905090810190601f16801561074f5780820380516001836020036101000a031916815260200191505b509c5050505050505050505050505060405180910390f35b34801561077357600080fd5b50610263611ccf565b34801561078857600080fd5b5061027a61203d565b34801561079d57600080fd5b506103da612097565b3480156107b257600080fd5b5061026361209d565b3480156107c757600080fd5b5061027a61243c565b3480156107dc57600080fd5b506103a9612497565b3480156107f157600080fd5b506103da6124a6565b34801561080657600080fd5b506103da6124ac565b34801561081b57600080fd5b5061027a6124b2565b34801561083057600080fd5b5061026361250d565b34801561084557600080fd5b506103da612725565b34801561085a57600080fd5b506103da61272b565b34801561086f57600080fd5b506103a9612731565b34801561088457600080fd5b50610899600160a060020a0360043516612740565b6040805194855260208501939093528383019190915215156060830152519081900360800190f35b3480156108cd57600080fd5b506102636127c4565b3480156108e257600080fd5b506103a9612b14565b3480156108f757600080fd5b506103da612b23565b34801561090c57600080fd5b506103da612b29565b34801561092157600080fd5b5061027a612b2f565b34801561093657600080fd5b5061093f612b8a565b604051808c600481111561094f57fe5b60ff1681526020018b81526020018a8152602001898152602001888152602001878152602001806020018060200186815260200185815260200180602001848103845289818151815260200191508051906020019080838360005b838110156109c25781810151838201526020016109aa565b50505050905090810190601f1680156109ef5780820380516001836020036101000a031916815260200191505b5084810383528851815288516020918201918a019080838360005b83811015610a22578181015183820152602001610a0a565b50505050905090810190601f168015610a4f5780820380516001836020036101000a031916815260200191505b50848103825285518152855160209182019187019080838360005b83811015610a82578181015183820152602001610a6a565b50505050905090810190601f168015610aaf5780820380516001836020036101000a031916815260200191505b509e50505050505050505050505050505060405180910390f35b348015610ad557600080fd5b50610263612da1565b610263613084565b348015610af257600080fd5b506102636135b1565b348015610b0757600080fd5b506103a961367e565b348015610b1c57600080fd5b506103a961368d565b348015610b3157600080fd5b506103da61369c565b348015610b4657600080fd5b506040805160206004803580820135601f81018490048402850184019095528484526102639436949293602493928401919081908401838280828437509497506136a29650505050505050565b348015610b9f57600080fd5b506103a9613821565b348015610bb457600080fd5b506103da613830565b348015610bc957600080fd5b50604080516020600460443581810135601f8101849004840285018401909552848452610263948235600160a060020a039081169560248035909216953695946064949293019190819084018382808284375050604080516020601f89358b018035918201839004830284018301909452808352979a99988101979196509182019450925082915084018382808284375050604080516020601f89358b018035918201839004830284018301909452808352979a99988101979196509182019450925082915084018382808284375050604080516020601f818a01358b0180359182018390048302840183018552818452989b8a3515159b909a9099940197509195509182019350915081908401838280828437509497506138369650505050505050565b348015610cfa57600080fd5b50610d03613ef9565b60405180826004811115610d1357fe5b60ff16815260200191505060405180910390f35b348015610d3357600080fd5b50610263613f09565b348015610d4857600080fd5b50610263600160a060020a03600435166140fc565b348015610d6957600080fd5b5061027a614194565b6008805460408051602060026001851615610100026000190190941693909304601f81018490048402820184019092528181529291830182828015610df85780601f10610dcd57610100808354040283529160200191610df8565b820191906000526020600020905b815481529060010190602001808311610ddb57829003601f168201915b505050505081565b602160205260009081526040902080546001820154600283015460038401546004850154600586015460068701546007880154600890980154969795969495939460ff808516956101009095041693908a565b60005433600160a060020a03908116911614610e6e57600080fd5b601a54760100000000000000000000000000000000000000000000900460ff1615610ee3576040805160e560020a62461bcd02815260206004820152601b60248201527f506f6f6c20706172616d657465727320616c7265616479207365740000000000604482015290519081900360640190fd5b601a8054600c879055600d86905560178054600160a060020a0380881673ffffffffffffffffffffffffffffffffffffffff19928316179092556014869055601f8054928616929091169190911790556000601181905560125575ff0000000000000000000000000000000000000000001976ff000000000000000000000000000000000000000000001990911676010000000000000000000000000000000000000000000017169055604080514260208201819052828252600180546002818316156101000260001901909116049383018490527fb71e870bee461331758237cb5c30e385f5b168a3e54b0c10062ba8cf27808f879390929081906060820190859080156110335780601f1061100857610100808354040283529160200191611033565b820191906000526020600020905b81548152906001019060200180831161101657829003601f168201915b5050935050505060405180910390a15050505050565b602080548290811061105757fe5b600091825260209091200154600160a060020a0316905081565b60135481565b60145481565b60226020526000908152604090205460ff8082169161010090041682565b601a5460a060020a900460ff1681565b6005805460408051602060026001851615610100026000190190941693909304601f81018490048402820184019092528181529291830182828015610df85780601f10610dcd57610100808354040283529160200191610df8565b60008080601f5460a060020a900460ff16600481111561112257fe5b148061114557506001601f5460a060020a900460ff16600481111561114357fe5b145b8061116757506002601f5460a060020a900460ff16600481111561116557fe5b145b15156111e3576040805160e560020a62461bcd02815260206004820152602b60248201527f506f6f6c20697320696e2074686520696e636f7272656374207374617465207460448201527f6f206164642066756e6473000000000000000000000000000000000000000000606482015290519081900360840190fd5b6000831161123b576040805160e560020a62461bcd02815260206004820152600d60248201527f5175616e74697479206973203000000000000000000000000000000000000000604482015290519081900360640190fd5b600a5461124e908463ffffffff6141ec16565b34146112ca576040805160e560020a62461bcd02815260206004820152603460248201527f56616c75652073656e74206973206e6f7420636f72726563742062617365642060448201527f6f6e207175616e746974792073656c6563746564000000000000000000000000606482015290519081900360840190fd5b33600160a060020a031660009081526021602052604090206004810154909250610100900460ff1615156113885760115461130c90600163ffffffff61422216565b6011556020805460018101825560008290527fc97bfaf2f8ee708c303a06d134f5ecd8389ae0432af62dc132a24118292866bb01805473ffffffffffffffffffffffffffffffffffffffff191633600160a060020a031617905560048301805461010061ff00199091161760ff19169055546000190160038301555b50600160a060020a03331660009081526021602052604090205434906113b4908263ffffffff61422216565b825560088201546113cb908463ffffffff61422216565b6008830155600f546113e3908263ffffffff61422216565b600f556040805184815234602082015242818301529051600160a060020a033316917f75df30f5831160e64cfebce060f9d3785c6d18500a35f60e3d8dd05cd8f2b8cf919081900360600190a260005b601f5460a060020a900460ff16600481111561144b57fe5b148061146e57506001601f5460a060020a900460ff16600481111561146c57fe5b145b156114b657600954600f54101561149457601f805460a060020a60ff02191690556114b6565b600954600f54106114b657601f805460a060020a60ff02191660a060020a1790555b505050565b6019546000908190819081908190600160a060020a0316158015906114ee575060195433600160a060020a039081169116145b1515611543576040805160e560020a62461bcd0281526020600482015260256024820152600080516020614568833981519152604482015260d860020a64647265737302606482015290519081900360840190fd5b6003601f5460a060020a900460ff16600481111561155d57fe5b146115a0576040805160e560020a62461bcd02815260206004820152601c6024820152600080516020614588833981519152604482015290519081900360640190fd5b600160a060020a03871660009081526021602052604081208054600382015491975095509350841161161c576040805160e560020a62461bcd02815260206004820152601260248201527f526566756e6420616d6f756e7420697320300000000000000000000000000000604482015290519081900360640190fd5b600160a060020a03871660009081526021602052604081208181556001808201839055600282018390556003820183905560048201805461ffff1916905560058201839055600682018390556007820183905560089091019190915560115461168a9163ffffffff61423116565b60115561169683614243565b600f546116a9908563ffffffff61423116565b600f55600160a060020a0387166000908152602260205260409020805460ff191660019081178083559193508791849161ff0019909116906101009084908111156116f057fe5b0217905550600d54841061170657600d54611708565b835b9050600160a060020a0387167f9d16769b770f451e0b1b01cbcd9890ad5dc8d3853f7db96b1b237e956c06259782611746878263ffffffff61423116565b89426040518085815260200184815260200183600181111561176457fe5b60ff16815260200182815260200194505050505060405180910390a2604051600160a060020a0333169082156108fc029083906000818181858888f193505050501580156117b6573d6000803e3d6000fd5b50600160a060020a0387166108fc6117d4868463ffffffff61423116565b6040518115909202916000818181858888f193505050501580156117fc573d6000803e3d6000fd5b5050505050505050565b601a547501000000000000000000000000000000000000000000900460ff1681565b60125481565b600e5481565b601954600160a060020a03161580159061185c575060195433600160a060020a039081169116145b15156118b1576040805160e560020a62461bcd0281526020600482015260256024820152600080516020614568833981519152604482015260d860020a64647265737302606482015290519081900360840190fd5b601854600160a060020a0316158015906118d55750601e54600160a060020a031615155b80156118e25750601b5415155b80156118ef5750601c5415155b80156118fc5750601d5415155b1515611952576040805160e560020a62461bcd02815260206004820152601c60248201527f506f6f6c20686173206e6f74206265656e20636f6e6669677572656400000000604482015290519081900360640190fd5b601f805460a060020a60ff0219167402000000000000000000000000000000000000000017905542601281905560408051600160a060020a0333168152602081019290925280517fec42e64f0d224ed219613c9d93bd4aa62721c164304b9f4e34539a474e9dac749281900390910190a1565b60155481565b6007805460408051602060026001851615610100026000190190941693909304601f81018490048402820184019092528181529291830182828015610df85780601f10610dcd57610100808354040283529160200191610df8565b601f54600160a060020a031681565b601854601e54601954601a546004805460408051602060026101006001861615026000190190941693909304601f8101849004840282018401909252818152600097889788978897606097889788978897600160a060020a0397881697968716969095169460a060020a90940460ff169360059260069260079291869190830182828015611b045780601f10611ad957610100808354040283529160200191611b04565b820191906000526020600020905b815481529060010190602001808311611ae757829003601f168201915b5050865460408051602060026001851615610100026000190190941693909304601f810184900484028201840190925281815295995088945092508401905082828015611b925780601f10611b6757610100808354040283529160200191611b92565b820191906000526020600020905b815481529060010190602001808311611b7557829003601f168201915b5050855460408051602060026001851615610100026000190190941693909304601f810184900484028201840190925281815295985087945092508401905082828015611c205780601f10611bf557610100808354040283529160200191611c20565b820191906000526020600020905b815481529060010190602001808311611c0357829003601f168201915b5050845460408051602060026001851615610100026000190190941693909304601f810184900484028201840190925281815295975086945092508401905082828015611cae5780601f10611c8357610100808354040283529160200191611cae565b820191906000526020600020905b815481529060010190602001808311611c9157829003601f168201915b50505050509050975097509750975097509750975097509091929394959697565b601954600160a060020a031615801590611cf7575060195433600160a060020a039081169116145b1515611d4c576040805160e560020a62461bcd0281526020600482015260256024820152600080516020614568833981519152604482015260d860020a64647265737302606482015290519081900360840190fd5b6003601f5460a060020a900460ff166004811115611d6657fe5b14611da9576040805160e560020a62461bcd02815260206004820152601c6024820152600080516020614588833981519152604482015290519081900360640190fd5b60105415611e26576040805160e560020a62461bcd028152602060048201526024808201527f506f6f6c20746f6b656e2062616c616e6365206973206772656174657220746860448201527f616e203000000000000000000000000000000000000000000000000000000000606482015290519081900360840190fd5b604080517f4e2f41000000000000000000000000000000000000000000000000000000000081529051908190036003019020601d5414611f2c57601860009054906101000a9004600160a060020a0316600160a060020a0316601d5460e060020a90046040518163ffffffff1660e060020a0281526004016000604051808303816000875af1925050501515611f2c576040805160e560020a62461bcd02815260206004820152602560248201527f43616c6c20746f2076656e646f727320636c61696d2066756e6374696f6e206660448201527f61696c6564000000000000000000000000000000000000000000000000000000606482015290519081900360840190fd5b601e54604080517f70a08231000000000000000000000000000000000000000000000000000000008152600160a060020a033081166004830152915191909216916370a082319160248083019260209291908290030181600087803b158015611f9457600080fd5b505af1158015611fa8573d6000803e3d6000fd5b505050506040513d6020811015611fbe57600080fd5b505160108190556000101561203b57601f805460a060020a60ff02191674040000000000000000000000000000000000000000179055601054604080519182524260208301528051600160a060020a033016927f9d8c1109d669c3f07d69a6f1c2d27c53c8c09c64216a0f511a006e9c90ce38c692908290030190a25b565b60018054604080516020600284861615610100026000190190941693909304601f81018490048402820184019092528181529291830182828015610df85780601f10610dcd57610100808354040283529160200191610df8565b60165481565b600160a060020a03331660009081526021602052604081209080806004601f5460a060020a900460ff1660048111156120d257fe5b14612127576040805160e560020a62461bcd02815260206004820152601960248201527f506f6f6c207374617465206973206e6f742027436c61696d2700000000000000604482015290519081900360640190fd5b6004840154610100900460ff16151561218a576040805160e560020a62461bcd02815260206004820152601960248201527f5061727469636970616e74206973206e6f742061637469766500000000000000604482015290519081900360640190fd5b83546000106121e3576040805160e560020a62461bcd02815260206004820152601d60248201527f5061727469636970616e7420636f6e747269627574696f6e2069732030000000604482015290519081900360640190fd5b6121ec33614333565b60028701549295509093509150151561220e5760028401839055600584018290555b601e54604080517f70a08231000000000000000000000000000000000000000000000000000000008152600160a060020a033081166004830152915191909216916370a082319160248083019260209291908290030181600087803b15801561227657600080fd5b505af115801561228a573d6000803e3d6000fd5b505050506040513d60208110156122a057600080fd5b5051601055600081116122fd576040805160e560020a62461bcd02815260206004820152601d60248201527f5061727469636970616e74277320746f6b656e73206475652069732030000000604482015290519081900360640190fd5b600184018190556006840154612319908263ffffffff61422216565b6006850155600784015461233490600163ffffffff61422216565b600785015560165461234c908263ffffffff61422216565b60165583546040805191825260208201839052428282015251600160a060020a033316917fe49649ad7d04a14b0d2a43dae89f207c0822143ff6f88a6480e88907e4e5c548919081900360600190a2601e54604080517fa9059cbb000000000000000000000000000000000000000000000000000000008152600160a060020a033381166004830152602482018590529151919092169163a9059cbb9160448083019260209291908290030181600087803b15801561240a57600080fd5b505af115801561241e573d6000803e3d6000fd5b505050506040513d602081101561243457600080fd5b505050505050565b6006805460408051602060026001851615610100026000190190941693909304601f81018490048402820184019092528181529291830182828015610df85780601f10610dcd57610100808354040283529160200191610df8565b601954600160a060020a031681565b60095481565b600f5481565b6003805460408051602060026001851615610100026000190190941693909304601f81018490048402820184019092528181529291830182828015610df85780601f10610dcd57610100808354040283529160200191610df8565b601954600160a060020a031615801590612535575060195433600160a060020a039081169116145b151561258a576040805160e560020a62461bcd0281526020600482015260256024820152600080516020614568833981519152604482015260d860020a64647265737302606482015290519081900360840190fd5b6002601f5460a060020a900460ff1660048111156125a457fe5b146125f9576040805160e560020a62461bcd02815260206004820181905260248201527f506f6f6c207374617465206973206e6f74202744756544696c6967656e636527604482015290519081900360640190fd5b6012541515612678576040805160e560020a62461bcd02815260206004820152602260248201527f52657669657720706572696f6420686173206e6f74206265656e20737461727460448201527f6564000000000000000000000000000000000000000000000000000000000000606482015290519081900360840190fd5b601454601254014210156126fc576040805160e560020a62461bcd02815260206004820152602860248201527f4475652064696c6967656e636520706572696f6420686173206e6f742079657460448201527f20656c6170736564000000000000000000000000000000000000000000000000606482015290519081900360840190fd5b601f805460a060020a60ff02191674030000000000000000000000000000000000000000179055565b600d5481565b60105481565b600054600160a060020a031681565b6000808080808080806004601f5460a060020a900460ff16600481111561276357fe5b1461277a57600097508796508695508594506127b9565b600160a060020a0389166000908152602160205260409020935061279d89614333565b6004870154929a50909850965060ff1694508792508691508590505b505050509193509193565b601954600160a060020a0316158015906127ec575060195433600160a060020a039081169116145b1515612841576040805160e560020a62461bcd0281526020600482015260256024820152600080516020614568833981519152604482015260d860020a64647265737302606482015290519081900360840190fd5b6003601f5460a060020a900460ff16600481111561285b57fe5b1461289e576040805160e560020a62461bcd02815260206004820152601c6024820152600080516020614588833981519152604482015290519081900360640190fd5b6010541561291b576040805160e560020a62461bcd028152602060048201526024808201527f506f6f6c20746f6b656e2062616c616e6365206973206772656174657220746860448201527f616e203000000000000000000000000000000000000000000000000000000000606482015290519081900360840190fd5b601860009054906101000a9004600160a060020a0316600160a060020a0316601c5460e060020a90046040518163ffffffff1660e060020a0281526004016000604051808303816000875af19250505015156129e7576040805160e560020a62461bcd02815260206004820152602660248201527f43616c6c20746f2076656e646f727320726566756e642066756e6374696f6e2060448201527f6661696c65640000000000000000000000000000000000000000000000000000606482015290519081900360840190fd5b600f54600160a060020a0330163110612acc57601f805460a060020a60ff02191674040000000000000000000000000000000000000000179055601554612a3990600160a060020a0330163190614231565b601355601554604051600160a060020a0333169180156108fc02916000818181858888f19350505050158015612a73573d6000803e3d6000fd5b5060135460408051600160a060020a03338116825260208201939093524281830152905130909216917fe4f3ad60fcc4e3e65ee91fdab10f983c07b8f7279f37427df5790f9d582af75d916060908290030190a261203b565b60408051600160a060020a033381168252426020830152825130909116927f6da19af7881faa64d549daab99daa2fd61875596fe013e42c755c81fc0653765928290030190a2565b601e54600160a060020a031681565b600c5481565b600a5481565b6004805460408051602060026001851615610100026000190190941693909304601f81018490048402820184019092528181529291830182828015610df85780601f10610dcd57610100808354040283529160200191610df8565b6000806000806000806060806000806060601f60149054906101000a900460ff16600f54601154600d5460095460125460026003600a54600b546001848054600181600116156101000203166002900480601f016020809104026020016040519081016040528092919081815260200182805460018160011615610100020316600290048015612c5b5780601f10612c3057610100808354040283529160200191612c5b565b820191906000526020600020905b815481529060010190602001808311612c3e57829003601f168201915b5050875460408051602060026001851615610100026000190190941693909304601f8101849004840282018401909252818152959a5089945092508401905082828015612ce95780601f10612cbe57610100808354040283529160200191612ce9565b820191906000526020600020905b815481529060010190602001808311612ccc57829003601f168201915b5050845460408051602060026001851615610100026000190190941693909304601f810184900484028201840190925281815295995086945092508401905082828015612d775780601f10612d4c57610100808354040283529160200191612d77565b820191906000526020600020905b815481529060010190602001808311612d5a57829003601f168201915b505050505090509a509a509a509a509a509a509a509a509a509a509a50909192939495969798999a565b600160a060020a033316600090815260216020526040812090806004601f5460a060020a900460ff166004811115612dd557fe5b14612e2a576040805160e560020a62461bcd02815260206004820152601960248201527f506f6f6c207374617465206973206e6f742027436c61696d2700000000000000604482015290519081900360640190fd5b6004830154610100900460ff161515612e8d576040805160e560020a62461bcd02815260206004820152601960248201527f5061727469636970616e74206973206e6f742061637469766500000000000000604482015290519081900360640190fd5b8254600010612ee6576040805160e560020a62461bcd02815260206004820152601d60248201527f5061727469636970616e7420636f6e747269627574696f6e2069732030000000604482015290519081900360640190fd5b600483015460ff1615612f69576040805160e560020a62461bcd02815260206004820152602860248201527f5061727469636970616e742068617320616c726561647920636c61696d65642060448201527f6120726566756e64000000000000000000000000000000000000000000000000606482015290519081900360840190fd5b60048301805460ff19166001179055612f8133614333565b50600285015491935091501515612fa15760028301829055600583018190555b6005830154600010612ffd576040805160e560020a62461bcd02815260206004820181905260248201527f5061727469636970616e74277320726566756e6420616d6f756e742069732030604482015290519081900360640190fd5b6005830154604080519182524260208301528051600160a060020a033316927f17c1d890f3ffba4991a771a0b55802a1eff3159d0cce950fb68d1360530393d992908290030190a26005830154604051600160a060020a0333169180156108fc02916000818181858888f1935050505015801561307e573d6000803e3d6000fd5b50505050565b601954600090819081908190600160a060020a0316158015906130b5575060195433600160a060020a039081169116145b151561310a576040805160e560020a62461bcd0281526020600482015260256024820152600080516020614568833981519152604482015260d860020a64647265737302606482015290519081900360840190fd5b6003601f5460a060020a900460ff16600481111561312457fe5b14613167576040805160e560020a62461bcd02815260206004820152601c6024820152600080516020614588833981519152604482015290519081900360640190fd5b61318f6064613183600c54600f546141ec90919063ffffffff16565b9063ffffffff61449516565b601a549094506000935083925060a060020a900460ff161561328757600e546131c09060649063ffffffff61423116565b90506131dc816131836064600f546141ec90919063ffffffff16565b92506131f3600f548461423190919063ffffffff16565b9150613205828563ffffffff61422216565b341015613282576040805160e560020a62461bcd02815260206004820152603a60248201527f56616c75652073656e74206973206e6f7420636f72726563742062617365642060448201527f6f6e207375627369647920616e642066656520616d6f756e7473000000000000606482015290519081900360840190fd5b61330b565b34841115613305576040805160e560020a62461bcd02815260206004820152602a60248201527f56616c75652073656e74206973206e6f7420636f72726563742062617365642060448201527f6f6e207468652066656500000000000000000000000000000000000000000000606482015290519081900360840190fd5b600f5492505b6015829055601754604051600160a060020a039091169085156108fc029086906000818181858888f1935050505015801561334a573d6000803e3d6000fd5b50604080517f4e2f41000000000000000000000000000000000000000000000000000000000081529051908190036003019020601b54141561342e57601854604051600160a060020a0390911690620493e09085906000818181858888f193505050501515613429576040805160e560020a62461bcd02815260206004820152602760248201527f43616c6c20746f2076656e646f722066616c6c6261636b2066756e6374696f6e60448201527f206661696c656400000000000000000000000000000000000000000000000000606482015290519081900360840190fd5b613502565b601860009054906101000a9004600160a060020a0316600160a060020a0316620493e084601b5460e060020a900491906040518363ffffffff1660e060020a028152600401600060405180830381858988f19450505050501515613502576040805160e560020a62461bcd02815260206004820152602760248201527f43616c6c20746f2076656e646f722070757263686173652066756e6374696f6e60448201527f206661696c656400000000000000000000000000000000000000000000000000606482015290519081900360840190fd5b600160a060020a03301631601355604080517f4e2f41000000000000000000000000000000000000000000000000000000000081529051908190036003019020601d54141561355357613553611ccf565b6018546040805185815260208101859052808201879052600160a060020a039092166060830152426080830152517f0babe22b73d6015f301b4ea78780f161f8db7b5e1fbcfd262e973ec75755635d9181900360a00190a150505050565b60005433600160a060020a039081169116146135cc57600080fd5b601a547501000000000000000000000000000000000000000000900460ff1615613640576040805160e560020a62461bcd02815260206004820152601b60248201527f4665652068617320616c7265616479206265656e207761697665640000000000604482015290519081900360640190fd5b601a805475ff000000000000000000000000000000000000000000191675010000000000000000000000000000000000000000001790556000600c55565b601a54600160a060020a031681565b601854600160a060020a031681565b60115481565b601a54600160a060020a0316158015906136ca5750601a5433600160a060020a039081169116145b1515613720576040805160e560020a62461bcd02815260206004820152601160248201527f4f6e6c7920706f6f6c2063726561746f72000000000000000000000000000000604482015290519081900360640190fd5b8051600010613779576040805160e560020a62461bcd02815260206004820152601460248201527f4c6f636174696f6e206861736820697320307830000000000000000000000000604482015290519081900360640190fd5b600854600260001961010060018416150201909116041561380a576040805160e560020a62461bcd02815260206004820152602b60248201527f4c6567616c20646f63756d656e7473206861766520616c72656164792062656560448201527f6e207375626d6974746564000000000000000000000000000000000000000000606482015290519081900360840190fd5b805161381d9060089060208401906144ac565b5050565b601754600160a060020a031681565b600b5481565b6001601f5460a060020a900460ff16600481111561385057fe5b146138ca576040805160e560020a62461bcd028152602060048201526024808201527f506f6f6c207374617465206973206e6f74202757617465724d61726b5265616360448201527f6865642700000000000000000000000000000000000000000000000000000000606482015290519081900360840190fd5b600160a060020a038716158015906138ea5750600160a060020a03861615155b80156138f7575060008551115b8015613904575060008351115b8015613911575060008451115b1515613967576040805160e560020a62461bcd02815260206004820181905260248201527f416c6c20696e7075742076616c7565732073686f756c64206265206e6f6e2030604482015290519081900360640190fd5b601f5460405160018054600160a060020a0390931692632521e3ba92908190839060026000198284161561010002019091160480156139dd5780601f106139bb5761010080835404028352918201916139dd565b820191906000526020600020905b8154815290600101906020018083116139c9575b50506040805191829003822060e060020a63ffffffff8716028352600483015251602480830194506020935090918290030181600087803b158015613a2157600080fd5b505af1158015613a35573d6000803e3d6000fd5b505050506040513d6020811015613a4b57600080fd5b50516019805473ffffffffffffffffffffffffffffffffffffffff1916600160a060020a039283161790819055338216911614613ad2576040805160e560020a62461bcd02815260206004820181905260248201527f53656e6465722068617320746f20626520746865204143412061646472657373604482015290519081900360640190fd5b60188054600160a060020a03808a1673ffffffffffffffffffffffffffffffffffffffff1992831617909255601e8054928916929091169190911790558451613b229060049060208801906144ac565b5060046040518082805460018160011615610100020316600290048015613b805780601f10613b5e576101008083540402835291820191613b80565b820191906000526020600020905b815481529060010190602001808311613b6c575b5050604051908190039020601b5550508251613ba39060059060208601906144ac565b5060056040518082805460018160011615610100020316600290048015613c015780601f10613bdf576101008083540402835291820191613c01565b820191906000526020600020905b815481529060010190602001808311613bed575b5050604051908190039020601c5550508351613c249060069060208701906144ac565b5060066040518082805460018160011615610100020316600290048015613c825780601f10613c60576101008083540402835291820191613c82565b820191906000526020600020905b815481529060010190602001808311613c6e575b5050604051908190039020601d555050601a805460a060020a60ff02191660a060020a841515021790558051613cbf9060079060208401906144ac565b507f55d4643c4796c2c9c8d1cbf0b6ee4616bf028803864ca856f5ee80c31ee01b95338888888888888842604051808a600160a060020a0316600160a060020a0316815260200189600160a060020a0316600160a060020a0316815260200188600160a060020a0316600160a060020a03168152602001806020018060200180602001871515151581526020018060200186815260200185810385528b818151815260200191508051906020019080838360005b83811015613d8b578181015183820152602001613d73565b50505050905090810190601f168015613db85780820380516001836020036101000a031916815260200191505b5085810384528a5181528a516020918201918c019080838360005b83811015613deb578181015183820152602001613dd3565b50505050905090810190601f168015613e185780820380516001836020036101000a031916815260200191505b5085810383528951815289516020918201918b019080838360005b83811015613e4b578181015183820152602001613e33565b50505050905090810190601f168015613e785780820380516001836020036101000a031916815260200191505b50858103825287518152875160209182019189019080838360005b83811015613eab578181015183820152602001613e93565b50505050905090810190601f168015613ed85780820380516001836020036101000a031916815260200191505b509d505050505050505050505050505060405180910390a150505050505050565b601f5460a060020a900460ff1681565b33600160a060020a0316600090815260216020526040812060048101549091908190610100900460ff161515613f89576040805160e560020a62461bcd02815260206004820152601960248201527f5061727469636970616e74206973206e6f742061637469766500000000000000604482015290519081900360640190fd5b8254600010613fe2576040805160e560020a62461bcd02815260206004820152601d60248201527f5061727469636970616e7420636f6e747269627574696f6e2069732030000000604482015290519081900360640190fd5b50508054600380830154600160a060020a0333166000908152602160205260408120818155600181018290556002810182905592830181905560048301805461ffff19169055600583018190556006830181905560078301819055600890920191909155600f54614059908363ffffffff61423116565b600f5561406581614243565b60115461407990600163ffffffff61423116565b601155604080518381524260208201528151600160a060020a033316927ffbc3a599b784fe88772fc5abcc07223f64ca0b13acc341f4fb1e46bef0510eb4928290030190a2604051600160a060020a0333169083156108fc029084906000818181858888f193505050501580156140f4573d6000803e3d6000fd5b506000611433565b60005433600160a060020a0390811691161461411757600080fd5b600160a060020a038116151561412c57600080fd5b60008054604051600160a060020a03808516939216917f8be0079c531659141344cd1fd0a4f28419497f9722a3daafe3b4186f6b6457e091a36000805473ffffffffffffffffffffffffffffffffffffffff1916600160a060020a0392909216919091179055565b6002805460408051602060018416156101000260001901909316849004601f81018490048402820184019092528181529291830182828015610df85780601f10610dcd57610100808354040283529160200191610df8565b6000808315156141ff576000915061421b565b5082820282848281151561420f57fe5b041461421757fe5b8091505b5092915050565b60008282018381101561421757fe5b60008282111561423d57fe5b50900390565b60208054600019810190811061425557fe5b600091825260209182902001548154600160a060020a0390911691908390811061427b57fe5b9060005260206000200160006101000a815481600160a060020a030219169083600160a060020a0316021790555080602160006020848154811015156142bd57fe5b6000918252602080832090910154600160a060020a03168352828101939093526040909101902060030191909155805460001981019081106142fb57fe5b600091825260209182902001805473ffffffffffffffffffffffffffffffffffffffff1916905580549061381d90600019830161452a565b600160a060020a038082166000908152602160209081526040808320601e5482517f70a082310000000000000000000000000000000000000000000000000000000081523087166004820152925194958695869593948694859485948594859492909116926370a08231926024808201939182900301818787803b1580156143ba57600080fd5b505af11580156143ce573d6000803e3d6000fd5b505050506040513d60208110156143e457600080fd5b5051601654600f54885492975090870195506144259161318390670de0b6b3a76400009061441990606463ffffffff6141ec16565b9063ffffffff6141ec16565b925061444d670de0b6b3a76400006131836064613183876013546141ec90919063ffffffff16565b600687015490925061448490614478670de0b6b3a76400006131836064818a8a63ffffffff6141ec16565b9063ffffffff61423116565b929a91995091975095505050505050565b60008082848115156144a357fe5b04949350505050565b828054600181600116156101000203166002900490600052602060002090601f016020900481019282601f106144ed57805160ff191683800117855561451a565b8280016001018555821561451a579182015b8281111561451a5782518255916020019190600101906144ff565b5061452692915061454a565b5090565b8154818355818111156114b6576000838152602090206114b69181019083015b61456491905b808211156145265760008155600101614550565b9056004f6e6c7920617574686f72697a656420636f6e66696775726174696f6e206164506f6f6c207374617465206973206e6f742027496e5265766965772700000000a165627a7a72305820e0f7f05d75da0180e5894878f8d608998eb5a67dca966af9e7a1e490f329b9600029a165627a7a723058203a68ea4eb6a6d8e55005367bd8e615a94bb38631c30e0a7830572b1aa8c726eb0029",
  "source": "pragma solidity ^0.4.23;\n\nimport \"./PoolParty.sol\";\nimport \"zeppelin-solidity/contracts/ownership/Ownable.sol\";\n\n/**\n * @title PoolPartyFactory\n * @dev Factory to create individual Pool Party contracts. Controls default values that pools are created with\n * @author - Shane van Coller\n */\ncontract PoolPartyFactory is Ownable {\n\n    uint256 public feePercentage;\n    uint256 public withdrawalFee;\n    uint256 public dueDiligenceDuration;\n\n    address public poolPartyOwnerAddress;\n    address public nameServiceAddress;\n\n    address[] public poolAddresses;\n\n    event PoolPartyCreated(address indexed poolAddress, address indexed creator, string poolUrl, uint256 date);\n    event FeePercentageUpdate(address indexed updater, uint256 oldValue, uint256 newValue, uint256 date);\n    event WithdrawalFeeUpdate(address indexed updater, uint256 oldValue, uint256 newValue, uint256 date);\n    event DueDiligenceDurationUpdate(address indexed updater, uint256 oldValue, uint256 newValue, uint256 date);\n\n    /**\n     * @dev Constructor for the Pool Party Factory\n     * @param _poolPartyOwnerAddress Account that the fee for the pool party service goes to\n     */\n    constructor(address _poolPartyOwnerAddress, address _nameServiceAddress) public {\n        require(_poolPartyOwnerAddress != 0x0, \"Pool Party owner address is 0x0\");\n        require(_nameServiceAddress != 0x0, \"Name service address is 0x0\");\n        feePercentage = 6;\n        withdrawalFee = 0.0015 ether;\n        dueDiligenceDuration = 604800 seconds; //default of 7 days\n        poolPartyOwnerAddress = _poolPartyOwnerAddress;\n        nameServiceAddress = _nameServiceAddress;\n    }\n\n    /**\n     * @notice Creates a new pool with the supplied parameters\n     * @param _rootDomain Root domain for the pool. Must be unique. Authorized configuration address is obtained from this domain\n     * @param _poolName Name for the pool\n     * @param _poolDescription Description of what the pool is\n     * @param _waterMark The minimum amount in wei for the pool to be considered a success\n     * @param _poolPrice The price of the pool - what the participants expect to get\n     * @param _retailPrice The retail price of whats being offered by in the pool\n     * @param _legalDocsHash Document/documents associated to the pool (contracts etc). Stored in decentralized storage\n     */\n    function createNewPoolParty(\n        string _rootDomain,\n        string _poolName,\n        string _poolDescription,\n        uint256 _waterMark,\n        uint256 _poolPrice,\n        uint256 _retailPrice,\n        bytes _legalDocsHash\n    )\n        public\n    {\n        //Validate non empty inputs\n        require(bytes(_rootDomain).length != 0, \"Root domain is empty\");\n        require(bytes(_poolName).length != 0, \"Pool Name is empty\");\n        require(bytes(_poolDescription).length != 0, \"Pool description is empty\");\n        require(_poolPrice > 0, \"Pool price is 0\");\n        require(_waterMark > 0, \"WaterMark is 0\");\n        require(_retailPrice > 0, \"Retail price is 0\");\n\n        PoolParty poolPartyContract = new PoolParty(_rootDomain, _poolName, _poolDescription, _waterMark, _poolPrice, _retailPrice, _legalDocsHash, msg.sender);\n        poolPartyContract.setPoolParameters(feePercentage, withdrawalFee, poolPartyOwnerAddress, dueDiligenceDuration, nameServiceAddress);\n        poolPartyContract.transferOwnership(owner);\n        poolAddresses.push(address(poolPartyContract));\n\n        emit PoolPartyCreated(poolPartyContract, msg.sender, _rootDomain, now);\n    }\n\n    /**\n     * @dev Returns the array of all pool address\n     */\n    function getAllPoolAddresses()\n        public\n        view\n        returns (address[])\n    {\n        return poolAddresses;\n    }\n\n    /**\n     * @dev Set the percentage fee that we take for using this service\n     * @param _feePercentage The new fee as a percentage\n     */\n    function setFeePercentage(uint256 _feePercentage) public onlyOwner {\n        require(_feePercentage <= 50, \"Fee percent is greater than 50%\");\n        uint256 _oldValue = feePercentage;\n        feePercentage = _feePercentage;\n\n        emit FeePercentageUpdate(msg.sender, _oldValue, _feePercentage, now);\n    }\n\n    /**\n     * @dev Set the withdrawal fee - used when a person gets kicked from the pool due to KYC\n     * @param _withdrawalFee The new withdrawal fee in wei\n     */\n    function setWithdrawalFeeAmount(uint256 _withdrawalFee) public onlyOwner {\n        uint256 _oldValue = withdrawalFee;\n        withdrawalFee = _withdrawalFee;\n\n        emit WithdrawalFeeUpdate(msg.sender, _oldValue, _withdrawalFee, now);\n    }\n\n    /**\n     * @dev Sets the amount of time the pool must be in due diligence state for (in seconds)\n     * @param _dueDiligenceDurationInSeconds The new duration in seconds\n     */\n    function setDueDiligenceDuration(uint256 _dueDiligenceDurationInSeconds) public onlyOwner {\n        require(_dueDiligenceDurationInSeconds > 0, \"Due diligence duration is 0\");\n        uint256 _oldValue = dueDiligenceDuration;\n        dueDiligenceDuration = _dueDiligenceDurationInSeconds * 1 seconds;\n\n        emit DueDiligenceDurationUpdate(msg.sender, _oldValue, dueDiligenceDuration, now);\n    }\n\n    /**\n     * @dev Sets the Pool Party owner address. This is the address that the Pool Party fees go to. This is different from the owner of the contract\n     * @param _newOwner Address of the new owner\n     */\n    function setPoolPartyOwnerAddress(address _newOwner) public onlyOwner {\n        require(_newOwner != 0x0, \"Pool Party owner address is 0x0\");\n        poolPartyOwnerAddress = _newOwner;\n    }\n}\n",
  "sourcePath": "/Users/shanevancoller/Development/blockchain/PoolParty/PoolPartyContracts/contracts/PoolPartyFactory.sol",
  "compiler": {
    "name": "solc",
    "version": "0.4.23+commit.124ca40d.Emscripten.clang"
  },
  "schemaVersion": "2.0.0",
  "updatedAt": "2018-06-08T03:57:55.219Z"
}